{
  "contractName": "Voting",
  "abi": [
    {
      "inputs": [],
      "stateMutability": "nonpayable",
      "type": "constructor"
    },
    {
      "anonymous": false,
      "inputs": [
        {
          "indexed": true,
          "internalType": "uint256",
          "name": "candidateId",
          "type": "uint256"
        },
        {
          "indexed": true,
          "internalType": "uint256",
          "name": "voteCount",
          "type": "uint256"
        }
      ],
      "name": "Voted",
      "type": "event"
    },
    {
      "anonymous": false,
      "inputs": [
        {
          "indexed": true,
          "internalType": "uint256",
          "name": "votingId",
          "type": "uint256"
        },
        {
          "indexed": true,
          "internalType": "uint256",
          "name": "votingStart",
          "type": "uint256"
        },
        {
          "indexed": true,
          "internalType": "uint256",
          "name": "votingEnd",
          "type": "uint256"
        },
        {
          "indexed": false,
          "internalType": "string",
          "name": "votingTitle",
          "type": "string"
        },
        {
          "components": [
            {
              "internalType": "uint256",
              "name": "id",
              "type": "uint256"
            },
            {
              "internalType": "string",
              "name": "name",
              "type": "string"
            },
            {
              "internalType": "string",
              "name": "party",
              "type": "string"
            },
            {
              "internalType": "string",
              "name": "imageUrl",
              "type": "string"
            },
            {
              "internalType": "uint256",
              "name": "voteCount",
              "type": "uint256"
            }
          ],
          "indexed": false,
          "internalType": "struct Voting.Candidate[]",
          "name": "candidates",
          "type": "tuple[]"
        }
      ],
      "name": "VotingCreated",
      "type": "event"
    },
    {
      "anonymous": false,
      "inputs": [],
      "name": "VotingDeleted",
      "type": "event"
    },
    {
      "anonymous": false,
      "inputs": [
        {
          "indexed": true,
          "internalType": "uint256",
          "name": "newStartTime",
          "type": "uint256"
        },
        {
          "indexed": true,
          "internalType": "uint256",
          "name": "newEndTime",
          "type": "uint256"
        }
      ],
      "name": "VotingStartedImmediately",
      "type": "event"
    },
    {
      "inputs": [],
      "name": "admin",
      "outputs": [
        {
          "internalType": "address",
          "name": "",
          "type": "address"
        }
      ],
      "stateMutability": "view",
      "type": "function"
    },
    {
      "inputs": [
        {
          "internalType": "uint256",
          "name": "_votingId",
          "type": "uint256"
        },
        {
          "internalType": "string",
          "name": "_title",
          "type": "string"
        },
        {
          "internalType": "uint256",
          "name": "_startDate",
          "type": "uint256"
        },
        {
          "internalType": "uint256",
          "name": "_endDate",
          "type": "uint256"
        },
        {
          "components": [
            {
              "internalType": "uint256",
              "name": "id",
              "type": "uint256"
            },
            {
              "internalType": "string",
              "name": "name",
              "type": "string"
            },
            {
              "internalType": "string",
              "name": "party",
              "type": "string"
            },
            {
              "internalType": "string",
              "name": "imageUrl",
              "type": "string"
            },
            {
              "internalType": "uint256",
              "name": "voteCount",
              "type": "uint256"
            }
          ],
          "internalType": "struct Voting.Candidate[]",
          "name": "_candidates",
          "type": "tuple[]"
        }
      ],
      "name": "createVoting",
      "outputs": [],
      "stateMutability": "nonpayable",
      "type": "function"
    },
    {
      "inputs": [
        {
          "internalType": "uint256",
          "name": "_endTimestamp",
          "type": "uint256"
        }
      ],
      "name": "startVotingImmediately",
      "outputs": [],
      "stateMutability": "nonpayable",
      "type": "function"
    },
    {
      "inputs": [],
      "name": "deleteVoting",
      "outputs": [],
      "stateMutability": "nonpayable",
      "type": "function"
    },
    {
      "inputs": [],
      "name": "cancelVoting",
      "outputs": [],
      "stateMutability": "nonpayable",
      "type": "function"
    },
    {
      "inputs": [
        {
          "internalType": "uint256",
          "name": "_candidateID",
          "type": "uint256"
        },
        {
          "internalType": "address",
          "name": "_voterAddress",
          "type": "address"
        }
      ],
      "name": "vote",
      "outputs": [],
      "stateMutability": "nonpayable",
      "type": "function"
    },
    {
      "inputs": [
        {
          "internalType": "address",
          "name": "_voterAddress",
          "type": "address"
        }
      ],
      "name": "checkVote",
      "outputs": [
        {
          "internalType": "bool",
          "name": "",
          "type": "bool"
        }
      ],
      "stateMutability": "view",
      "type": "function"
    },
    {
      "inputs": [],
      "name": "getCountCandidates",
      "outputs": [
        {
          "internalType": "uint256",
          "name": "",
          "type": "uint256"
        }
      ],
      "stateMutability": "view",
      "type": "function"
    },
    {
      "inputs": [],
      "name": "isVotingCreated",
      "outputs": [
        {
          "internalType": "bool",
          "name": "",
          "type": "bool"
        }
      ],
      "stateMutability": "view",
      "type": "function"
    },
    {
      "inputs": [
        {
          "internalType": "uint256",
          "name": "_candidateID",
          "type": "uint256"
        }
      ],
      "name": "getCandidate",
      "outputs": [
        {
          "internalType": "uint256",
          "name": "",
          "type": "uint256"
        },
        {
          "internalType": "string",
          "name": "",
          "type": "string"
        },
        {
          "internalType": "string",
          "name": "",
          "type": "string"
        },
        {
          "internalType": "string",
          "name": "",
          "type": "string"
        },
        {
          "internalType": "uint256",
          "name": "",
          "type": "uint256"
        }
      ],
      "stateMutability": "view",
      "type": "function"
    },
    {
      "inputs": [],
      "name": "getCandidates",
      "outputs": [
        {
          "components": [
            {
              "internalType": "uint256",
              "name": "id",
              "type": "uint256"
            },
            {
              "internalType": "string",
              "name": "name",
              "type": "string"
            },
            {
              "internalType": "string",
              "name": "party",
              "type": "string"
            },
            {
              "internalType": "string",
              "name": "imageUrl",
              "type": "string"
            },
            {
              "internalType": "uint256",
              "name": "voteCount",
              "type": "uint256"
            }
          ],
          "internalType": "struct Voting.Candidate[]",
          "name": "",
          "type": "tuple[]"
        }
      ],
      "stateMutability": "view",
      "type": "function"
    },
    {
      "inputs": [],
      "name": "getDates",
      "outputs": [
        {
          "internalType": "uint256",
          "name": "",
          "type": "uint256"
        },
        {
          "internalType": "uint256",
          "name": "",
          "type": "uint256"
        }
      ],
      "stateMutability": "view",
      "type": "function"
    }
  ],
  "bytecode": "0x608060405234801561001057600080fd5b506000600960006101000a81548160ff02191690831515021790555060006005819055506000600881905550336000806101000a81548173ffffffffffffffffffffffffffffffffffffffff021916908373ffffffffffffffffffffffffffffffffffffffff1602179055506125ed8061008b6000396000f3fe608060405234801561001057600080fd5b50600436106100b45760003560e01c80635a0857d4116100715780635a0857d41461016e578063791b88531461019e57806381f4b232146101ba578063a13b83b9146101c4578063a75705a3146101e0578063f851a440146101fe576100b4565b806302d947ef146100b957806306a49fce146100d55780630a84a217146100f3578063164418131461011157806335b8e820146101305780634f7a535414610164575b600080fd5b6100d360048036038101906100ce9190611955565b61021c565b005b6100dd6103a2565b6040516100ea9190611fb4565b60405180910390f35b6100fb610764565b60405161010891906121a8565b60405180910390f35b61011961076e565b60405161012792919061222b565b60405180910390f35b61014a6004803603810190610145919061192c565b61085c565b60405161015b9594939291906121c3565b60405180910390f35b61016c610bad565b005b61018860048036038101906101839190611903565b610d9b565b6040516101959190611fd6565b60405180910390f35b6101b860048036038101906101b39190611991565b610e8b565b005b6101c2611154565b005b6101de60048036038101906101d9919061192c565b611342565b005b6101e8611464565b6040516101f59190611fd6565b60405180910390f35b61020661147b565b6040516102139190611f99565b60405180910390f35b60008211801561022e57506005548211155b61026d576040517f08c379a000000000000000000000000000000000000000000000000000000000815260040161026490612188565b60405180910390fd5b61027681610d9b565b156102b6576040517f08c379a00000000000000000000000000000000000000000000000000000000081526004016102ad90612028565b60405180910390fd5b806002600060016008546102ca919061235c565b815260200190815260200160002060006101000a81548173ffffffffffffffffffffffffffffffffffffffff021916908373ffffffffffffffffffffffffffffffffffffffff16021790555060086000815480929190610329906124a2565b9190505550600160008381526020019081526020016000206004016000815480929190610355906124a2565b91905055506001600083815260200190815260200160002060040154827f84a5508ca0d85b42a876e75a9126f3ae7b43617ce60b170bf8805d34630bc65460405160405180910390a35050565b606060008054906101000a900473ffffffffffffffffffffffffffffffffffffffff1673ffffffffffffffffffffffffffffffffffffffff163373ffffffffffffffffffffffffffffffffffffffff1614610432576040517f08c379a000000000000000000000000000000000000000000000000000000000815260040161042990612128565b60405180910390fd5b600960009054906101000a900460ff16610481576040517f08c379a0000000000000000000000000000000000000000000000000000000008152600401610478906120e8565b60405180910390fd5b600060055467ffffffffffffffff8111156104c5577f4e487b7100000000000000000000000000000000000000000000000000000000600052604160045260246000fd5b6040519080825280602002602001820160405280156104fe57816020015b6104eb611608565b8152602001906001900390816104e35790505b5090506000600190505b600554811161075c57600160008281526020019081526020016000206040518060a00160405290816000820154815260200160018201805461054990612470565b80601f016020809104026020016040519081016040528092919081815260200182805461057590612470565b80156105c25780601f10610597576101008083540402835291602001916105c2565b820191906000526020600020905b8154815290600101906020018083116105a557829003601f168201915b505050505081526020016002820180546105db90612470565b80601f016020809104026020016040519081016040528092919081815260200182805461060790612470565b80156106545780601f1061062957610100808354040283529160200191610654565b820191906000526020600020905b81548152906001019060200180831161063757829003601f168201915b5050505050815260200160038201805461066d90612470565b80601f016020809104026020016040519081016040528092919081815260200182805461069990612470565b80156106e65780601f106106bb576101008083540402835291602001916106e6565b820191906000526020600020905b8154815290600101906020018083116106c957829003601f168201915b505050505081526020016004820154815250508260018361070791906123b2565b8151811061073e577f4e487b7100000000000000000000000000000000000000000000000000000000600052603260045260246000fd5b60200260200101819052508080610754906124a2565b915050610508565b508091505090565b6000600554905090565b60008060008054906101000a900473ffffffffffffffffffffffffffffffffffffffff1673ffffffffffffffffffffffffffffffffffffffff163373ffffffffffffffffffffffffffffffffffffffff16146107ff576040517f08c379a00000000000000000000000000000000000000000000000000000000081526004016107f690612088565b60405180910390fd5b600960009054906101000a900460ff1661084e576040517f08c379a0000000000000000000000000000000000000000000000000000000008152600401610845906120e8565b60405180910390fd5b600754600654915091509091565b6000606080606060008060009054906101000a900473ffffffffffffffffffffffffffffffffffffffff1673ffffffffffffffffffffffffffffffffffffffff163373ffffffffffffffffffffffffffffffffffffffff16146108f4576040517f08c379a00000000000000000000000000000000000000000000000000000000081526004016108eb90612068565b60405180910390fd5b600960009054906101000a900460ff16610943576040517f08c379a000000000000000000000000000000000000000000000000000000000815260040161093a906120e8565b60405180910390fd5b60008611801561095557506005548611155b610994576040517f08c379a000000000000000000000000000000000000000000000000000000000815260040161098b90612188565b60405180910390fd5b6000600160008881526020019081526020016000206040518060a0016040529081600082015481526020016001820180546109ce90612470565b80601f01602080910402602001604051908101604052809291908181526020018280546109fa90612470565b8015610a475780601f10610a1c57610100808354040283529160200191610a47565b820191906000526020600020905b815481529060010190602001808311610a2a57829003601f168201915b50505050508152602001600282018054610a6090612470565b80601f0160208091040260200160405190810160405280929190818152602001828054610a8c90612470565b8015610ad95780601f10610aae57610100808354040283529160200191610ad9565b820191906000526020600020905b815481529060010190602001808311610abc57829003601f168201915b50505050508152602001600382018054610af290612470565b80601f0160208091040260200160405190810160405280929190818152602001828054610b1e90612470565b8015610b6b5780601f10610b4057610100808354040283529160200191610b6b565b820191906000526020600020905b815481529060010190602001808311610b4e57829003601f168201915b50505050508152602001600482015481525050905080600001518160200151826040015183606001518460800151955095509550955095505091939590929450565b60008054906101000a900473ffffffffffffffffffffffffffffffffffffffff1673ffffffffffffffffffffffffffffffffffffffff163373ffffffffffffffffffffffffffffffffffffffff1614610c3b576040517f08c379a0000000000000000000000000000000000000000000000000000000008152600401610c32906120c8565b60405180910390fd5b600960009054906101000a900460ff16610c8a576040517f08c379a0000000000000000000000000000000000000000000000000000000008152600401610c81906120e8565b60405180910390fd5b6000600960006101000a81548160ff0219169083151502179055506000600781905550600060068190555060006003819055506040518060200160405280600081525060049080519060200190610ce2929190611637565b506000600190505b6005548111610d5c5760016000828152602001908152602001600020600080820160009055600182016000610d1f91906116bd565b600282016000610d2f91906116bd565b600382016000610d3f91906116bd565b600482016000905550508080610d54906124a2565b915050610cea565b50600060088190555060006005819055507fd6830bf62d30a7b09c873d3babdfcd68174689aa9a2fc3612ede6999000c446960405160405180910390a1565b6000600960009054906101000a900460ff16610dec576040517f08c379a0000000000000000000000000000000000000000000000000000000008152600401610de3906120e8565b60405180910390fd5b6000600190505b6008548111610e80578273ffffffffffffffffffffffffffffffffffffffff166002600083815260200190815260200160002060009054906101000a900473ffffffffffffffffffffffffffffffffffffffff1673ffffffffffffffffffffffffffffffffffffffff161415610e6d576001915050610e86565b8080610e78906124a2565b915050610df3565b50600090505b919050565b60008054906101000a900473ffffffffffffffffffffffffffffffffffffffff1673ffffffffffffffffffffffffffffffffffffffff163373ffffffffffffffffffffffffffffffffffffffff1614610f19576040517f08c379a0000000000000000000000000000000000000000000000000000000008152600401610f1090612148565b60405180910390fd5b600960009054906101000a900460ff1615610f69576040517f08c379a0000000000000000000000000000000000000000000000000000000008152600401610f6090612108565b60405180910390fd5b846003819055508360049080519060200190610f86929190611637565b50610f91838361149f565b6000600960016101000a81548160ff02191690831515021790555060005b81518110156110e7576110d4828281518110610ff4577f4e487b7100000000000000000000000000000000000000000000000000000000600052603260045260246000fd5b602002602001015160000151838381518110611039577f4e487b7100000000000000000000000000000000000000000000000000000000600052603260045260246000fd5b60200260200101516020015184848151811061107e577f4e487b7100000000000000000000000000000000000000000000000000000000600052603260045260246000fd5b6020026020010151604001518585815181106110c3577f4e487b7100000000000000000000000000000000000000000000000000000000600052603260045260246000fd5b6020026020010151606001516114b1565b80806110df906124a2565b915050610faf565b506001600960006101000a81548160ff0219169083151502179055506006546007546003547fc1583a7422ad4b60a3ba1e18916bacb655b5cf33d34d030ddbbe8a11d6062def60046111376103a2565b604051611145929190611ff1565b60405180910390a45050505050565b60008054906101000a900473ffffffffffffffffffffffffffffffffffffffff1673ffffffffffffffffffffffffffffffffffffffff163373ffffffffffffffffffffffffffffffffffffffff16146111e2576040517f08c379a00000000000000000000000000000000000000000000000000000000081526004016111d990612048565b60405180910390fd5b600960009054906101000a900460ff16611231576040517f08c379a0000000000000000000000000000000000000000000000000000000008152600401611228906120e8565b60405180910390fd5b6000600960006101000a81548160ff0219169083151502179055506000600781905550600060068190555060006003819055506040518060200160405280600081525060049080519060200190611289929190611637565b506000600190505b600554811161130357600160008281526020019081526020016000206000808201600090556001820160006112c691906116bd565b6002820160006112d691906116bd565b6003820160006112e691906116bd565b6004820160009055505080806112fb906124a2565b915050611291565b50600060088190555060006005819055507fd6830bf62d30a7b09c873d3babdfcd68174689aa9a2fc3612ede6999000c446960405160405180910390a1565b60008054906101000a900473ffffffffffffffffffffffffffffffffffffffff1673ffffffffffffffffffffffffffffffffffffffff163373ffffffffffffffffffffffffffffffffffffffff16146113d0576040517f08c379a00000000000000000000000000000000000000000000000000000000081526004016113c7906120a8565b60405180910390fd5b600960009054906101000a900460ff1661141f576040517f08c379a0000000000000000000000000000000000000000000000000000000008152600401611416906120e8565b60405180910390fd5b6000429050806007819055508160068190555081817f723b4054c0ad56f1c990e751937b4e01f89a590e9953b5aba06d1f68fb940d8160405160405180910390a35050565b6000600960009054906101000a900460ff16905090565b60008054906101000a900473ffffffffffffffffffffffffffffffffffffffff1681565b81600781905550806006819055505050565b60008054906101000a900473ffffffffffffffffffffffffffffffffffffffff1673ffffffffffffffffffffffffffffffffffffffff163373ffffffffffffffffffffffffffffffffffffffff161461153f576040517f08c379a000000000000000000000000000000000000000000000000000000000815260040161153690612168565b60405180910390fd5b60056000815480929190611552906124a2565b91905055506040518060a0016040528085815260200184815260200183815260200182815260200160008152506001600060055481526020019081526020016000206000820151816000015560208201518160010190805190602001906115ba929190611637565b5060408201518160020190805190602001906115d7929190611637565b5060608201518160030190805190602001906115f4929190611637565b506080820151816004015590505050505050565b6040518060a0016040528060008152602001606081526020016060815260200160608152602001600081525090565b82805461164390612470565b90600052602060002090601f01602090048101928261166557600085556116ac565b82601f1061167e57805160ff19168380011785556116ac565b828001600101855582156116ac579182015b828111156116ab578251825591602001919060010190611690565b5b5090506116b991906116fd565b5090565b5080546116c990612470565b6000825580601f106116db57506116fa565b601f0160209004906000526020600020908101906116f991906116fd565b5b50565b5b808211156117165760008160009055506001016116fe565b5090565b600061172d61172884612285565b612254565b9050808382526020820190508260005b8581101561176d5781358501611753888261181e565b84526020840193506020830192505060018101905061173d565b5050509392505050565b600061178a611785846122b1565b612254565b9050828152602081018484840111156117a257600080fd5b6117ad84828561242e565b509392505050565b6000813590506117c481612589565b92915050565b600082601f8301126117db57600080fd5b81356117eb84826020860161171a565b91505092915050565b600082601f83011261180557600080fd5b8135611815848260208601611777565b91505092915050565b600060a0828403121561183057600080fd5b61183a60a0612254565b9050600061184a848285016118ee565b600083015250602082013567ffffffffffffffff81111561186a57600080fd5b611876848285016117f4565b602083015250604082013567ffffffffffffffff81111561189657600080fd5b6118a2848285016117f4565b604083015250606082013567ffffffffffffffff8111156118c257600080fd5b6118ce848285016117f4565b60608301525060806118e2848285016118ee565b60808301525092915050565b6000813590506118fd816125a0565b92915050565b60006020828403121561191557600080fd5b6000611923848285016117b5565b91505092915050565b60006020828403121561193e57600080fd5b600061194c848285016118ee565b91505092915050565b6000806040838503121561196857600080fd5b6000611976858286016118ee565b9250506020611987858286016117b5565b9150509250929050565b600080600080600060a086880312156119a957600080fd5b60006119b7888289016118ee565b955050602086013567ffffffffffffffff8111156119d457600080fd5b6119e0888289016117f4565b94505060406119f1888289016118ee565b9350506060611a02888289016118ee565b925050608086013567ffffffffffffffff811115611a1f57600080fd5b611a2b888289016117ca565b9150509295509295909350565b6000611a448383611ef7565b905092915050565b611a55816123e6565b82525050565b6000611a6682612306565b611a708185612329565b935083602082028501611a82856122e1565b8060005b85811015611abe5784840389528151611a9f8582611a38565b9450611aaa8361231c565b925060208a01995050600181019050611a86565b50829750879550505050505092915050565b611ad9816123f8565b82525050565b6000611aea82612311565b611af4818561233a565b9350611b0481856020860161243d565b611b0d81612578565b840191505092915050565b6000611b2382612311565b611b2d818561234b565b9350611b3d81856020860161243d565b611b4681612578565b840191505092915050565b60008154611b5e81612470565b611b68818661234b565b94506001821660008114611b835760018114611b9557611bc8565b60ff1983168652602086019350611bc8565b611b9e856122f1565b60005b83811015611bc057815481890152600182019150602081019050611ba1565b808801955050505b50505092915050565b6000611bde60178361234b565b91507f596f75206861766520616c726561647920766f7465642e0000000000000000006000830152602082019050919050565b6000611c1e601f8361234b565b91507f4f6e6c792061646d696e2063616e2063616e63656c206120766f74696e672e006000830152602082019050919050565b6000611c5e601f8361234b565b91507f4f6e6c792061646d696e2063616e2067657420612063616e6469646174652e006000830152602082019050919050565b6000611c9e601d8361234b565b91507f4f6e6c792061646d696e2063616e20676574207468652064617465732e0000006000830152602082019050919050565b6000611cde601c8361234b565b91507f4f6e6c792061646d696e2063616e20737461727420766f74696e672e000000006000830152602082019050919050565b6000611d1e601f8361234b565b91507f4f6e6c792061646d696e2063616e2064656c657465206120766f74696e672e006000830152602082019050919050565b6000611d5e601c8361234b565b91507f566f74696e6720686173206e6f74206265656e20637265617465642e000000006000830152602082019050919050565b6000611d9e60208361234b565b91507f566f74696e672068617320616c7265616479206265656e20637265617465642e6000830152602082019050919050565b6000611dde60228361234b565b91507f4f6e6c792061646d696e2063616e20676574207468652063616e64696461746560008301527f732e0000000000000000000000000000000000000000000000000000000000006020830152604082019050919050565b6000611e44601f8361234b565b91507f4f6e6c792061646d696e2063616e20637265617465206120766f74696e672e006000830152602082019050919050565b6000611e84601f8361234b565b91507f4f6e6c792061646d696e2063616e2061646420612063616e6469646174652e006000830152602082019050919050565b6000611ec460158361234b565b91507f496e76616c69642063616e6469646174652049442e00000000000000000000006000830152602082019050919050565b600060a083016000830151611f0f6000860182611f7b565b5060208301518482036020860152611f278282611adf565b91505060408301518482036040860152611f418282611adf565b91505060608301518482036060860152611f5b8282611adf565b9150506080830151611f706080860182611f7b565b508091505092915050565b611f8481612424565b82525050565b611f9381612424565b82525050565b6000602082019050611fae6000830184611a4c565b92915050565b60006020820190508181036000830152611fce8184611a5b565b905092915050565b6000602082019050611feb6000830184611ad0565b92915050565b6000604082019050818103600083015261200b8185611b51565b9050818103602083015261201f8184611a5b565b90509392505050565b6000602082019050818103600083015261204181611bd1565b9050919050565b6000602082019050818103600083015261206181611c11565b9050919050565b6000602082019050818103600083015261208181611c51565b9050919050565b600060208201905081810360008301526120a181611c91565b9050919050565b600060208201905081810360008301526120c181611cd1565b9050919050565b600060208201905081810360008301526120e181611d11565b9050919050565b6000602082019050818103600083015261210181611d51565b9050919050565b6000602082019050818103600083015261212181611d91565b9050919050565b6000602082019050818103600083015261214181611dd1565b9050919050565b6000602082019050818103600083015261216181611e37565b9050919050565b6000602082019050818103600083015261218181611e77565b9050919050565b600060208201905081810360008301526121a181611eb7565b9050919050565b60006020820190506121bd6000830184611f8a565b92915050565b600060a0820190506121d86000830188611f8a565b81810360208301526121ea8187611b18565b905081810360408301526121fe8186611b18565b905081810360608301526122128185611b18565b90506122216080830184611f8a565b9695505050505050565b60006040820190506122406000830185611f8a565b61224d6020830184611f8a565b9392505050565b6000604051905081810181811067ffffffffffffffff8211171561227b5761227a612549565b5b8060405250919050565b600067ffffffffffffffff8211156122a05761229f612549565b5b602082029050602081019050919050565b600067ffffffffffffffff8211156122cc576122cb612549565b5b601f19601f8301169050602081019050919050565b6000819050602082019050919050565b60008190508160005260206000209050919050565b600081519050919050565b600081519050919050565b6000602082019050919050565b600082825260208201905092915050565b600082825260208201905092915050565b600082825260208201905092915050565b600061236782612424565b915061237283612424565b9250827fffffffffffffffffffffffffffffffffffffffffffffffffffffffffffffffff038211156123a7576123a66124eb565b5b828201905092915050565b60006123bd82612424565b91506123c883612424565b9250828210156123db576123da6124eb565b5b828203905092915050565b60006123f182612404565b9050919050565b60008115159050919050565b600073ffffffffffffffffffffffffffffffffffffffff82169050919050565b6000819050919050565b82818337600083830152505050565b60005b8381101561245b578082015181840152602081019050612440565b8381111561246a576000848401525b50505050565b6000600282049050600182168061248857607f821691505b6020821081141561249c5761249b61251a565b5b50919050565b60006124ad82612424565b91507fffffffffffffffffffffffffffffffffffffffffffffffffffffffffffffffff8214156124e0576124df6124eb565b5b600182019050919050565b7f4e487b7100000000000000000000000000000000000000000000000000000000600052601160045260246000fd5b7f4e487b7100000000000000000000000000000000000000000000000000000000600052602260045260246000fd5b7f4e487b7100000000000000000000000000000000000000000000000000000000600052604160045260246000fd5b6000601f19601f8301169050919050565b612592816123e6565b811461259d57600080fd5b50565b6125a981612424565b81146125b457600080fd5b5056fea2646970667358221220a6df498ae98ed5aea1bdcf1f6f97e9dada168dad9d03001301b9ddfd2a62116c64736f6c63430008000033",
  "immutableReferences": {},
  "source": "// SPDX-License-Identifier: MIT\r\n// This license identifier specifies that the code is released under the MIT License\r\n// File: contracts/Voting.sol\r\n// This is the main smart contract for the decentralized voting application.\r\npragma solidity 0.8.0; // Specifies the Solidity compiler version to use\r\n\r\n/**\r\n * @title Voting\r\n * @dev A smart contract for managing decentralized voting sessions\r\n */\r\ncontract Voting {\r\n\r\n    // Admin address that has special privileges\r\n    address public admin;\r\n\r\n    /**\r\n     * @dev Struct to hold information about each candidate\r\n     */\r\n    struct Candidate {\r\n        uint id;          // Unique identifier for the candidate\r\n        string name;      // Name of the candidate\r\n        string party;     // Political party or affiliation of the candidate\r\n        string imageUrl;  // URL of the candidate's image\r\n        uint voteCount;   // Number of votes received by the candidate\r\n    }\r\n\r\n    // Mappings to store data\r\n    mapping(uint => Candidate) private candidates; // Maps candidate ID to Candidate struct\r\n    mapping(uint => address) private voters;        // Maps voter index to voter ID string\r\n\r\n    // State variables\r\n    uint private votingId;        // ID of the current voting session\r\n    string private votingTitle;   // Title of the current voting session\r\n    uint private countCandidates; // Total number of candidates in the current session\r\n    uint256 private votingEnd;    // Timestamp for when voting ends\r\n    uint256 private votingStart;  // Timestamp for when voting starts\r\n    uint private votingCount;     // Number of votes cast in the current session\r\n    bool private votingCreated;   // Boolean indicating if a voting session has been created\r\n    bool private votingActuallyStarted; // Boolean indicating if voting has actually started\r\n\r\n    // Events\r\n    /**\r\n     * @dev Event emitted when a vote is cast\r\n     * @param candidateId ID of the candidate who received the vote\r\n     * @param voteCount Updated vote count for the candidate\r\n     */\r\n    event Voted(uint indexed candidateId, uint indexed voteCount);\r\n    \r\n    /**\r\n     * @dev Event emitted when a voting session is created\r\n     * @param votingId ID of the created voting session\r\n     * @param votingStart Timestamp when voting starts\r\n     * @param votingEnd Timestamp when voting ends\r\n     * @param votingTitle Title of the voting session\r\n     * @param candidates Array of candidates in the voting session\r\n     */\r\n    event VotingCreated(uint indexed votingId, uint indexed votingStart, uint indexed votingEnd, string votingTitle, Candidate[] candidates);\r\n\r\n    /**\r\n     * @dev Event emitted when a voting session is deleted\r\n     */\r\n    event VotingDeleted();\r\n\r\n    /**\r\n     * @dev Event emitted when voting is started immediately\r\n     * @param newStartTime New start timestamp (current time)\r\n     * @param newEndTime New end timestamp\r\n     */\r\n    event VotingStartedImmediately(uint256 indexed newStartTime, uint256 indexed newEndTime);\r\n\r\n\r\n    /**\r\n     * @dev Constructor to set initial values when the contract is deployed\r\n     */\r\n    constructor() {\r\n        votingCreated = false;    // No voting session created initially\r\n        countCandidates = 0;      // No candidates initially\r\n        votingCount = 0;          // No votes cast initially\r\n        admin = msg.sender;       // Set deployer as admin\r\n    }\r\n\r\n    // --- Functions ---\r\n\r\n    /**\r\n     * @dev Creates a new voting session\r\n     * @param _votingId Unique identifier for the voting session\r\n     * @param _title The title of the voting session\r\n     * @param _startDate The UNIX timestamp for the start of voting\r\n     * @param _endDate The UNIX timestamp for the end of voting\r\n     * @param _candidates Array of candidate structs to add to the voting session\r\n     */\r\n    function createVoting(uint _votingId, string memory _title, uint256 _startDate, uint256 _endDate, Candidate[] memory _candidates) public {\r\n        // Verify that only the admin can create a voting session\r\n        require(msg.sender == admin, \"Only admin can create a voting.\");\r\n        // Verify that no voting session exists already\r\n        require(!votingCreated, \"Voting has already been created.\");\r\n        // Verify that the start date is in the future\r\n        // Verify that no voting session has been configured\r\n        // require(votingStart <= block.timestamp, \"Voting has already been configured.\");\r\n\r\n        // Set voting session details\r\n        votingId = _votingId;\r\n        votingTitle = _title;\r\n        setDates(_startDate, _endDate);\r\n        votingActuallyStarted = false;\r\n        // Add all candidates to the voting session\r\n        for (uint i = 0; i < _candidates.length; i++) {\r\n            addCandidate(_candidates[i].id, _candidates[i].name, _candidates[i].party, _candidates[i].imageUrl);\r\n        }\r\n        \r\n        // Mark that a voting session has been created\r\n        votingCreated = true;\r\n\r\n        // Emit event for the created voting session\r\n        emit VotingCreated(votingId, votingStart, votingEnd, votingTitle, getCandidates());\r\n    }\r\n\r\n\r\n    /**\r\n     * @dev Start voting immediately and end at specific timestamp\r\n     * @param _endTimestamp Timestamp when voting should end\r\n     */\r\n    function startVotingImmediately(uint256 _endTimestamp) public {\r\n        // Verify that only the admin can start voting\r\n        require(msg.sender == admin, \"Only admin can start voting.\");\r\n        // Verify that a voting session exists\r\n        require(votingCreated, \"Voting has not been created.\");\r\n        // Verify that end time is in the future\r\n\r\n        \r\n        uint256 currentTime = block.timestamp;\r\n        \r\n        // Update the dates to start now\r\n        votingStart = currentTime;\r\n        votingEnd = _endTimestamp;\r\n        \r\n        // Emit event for immediate start\r\n        emit VotingStartedImmediately(currentTime, _endTimestamp);\r\n    }\r\n\r\n    /**\r\n     * @dev Deletes the current voting session\r\n     * Can only be called by the admin when voting is not ongoing\r\n     */\r\n    function deleteVoting() public {\r\n        // Verify that only the admin can delete a voting session\r\n        require(msg.sender == admin, \"Only admin can delete a voting.\");\r\n        // Verify that a voting session exists\r\n        require(votingCreated, \"Voting has not been created.\");\r\n        // Verify that voting is not currently ongoing\r\n\r\n        \r\n        // Reset all voting session data\r\n        votingCreated = false;\r\n        votingStart = 0;\r\n        votingEnd = 0;\r\n        votingId = 0;\r\n        votingTitle = \"\";\r\n        \r\n        // Delete all candidates\r\n        for (uint i = 1; i <= countCandidates; i++) {\r\n            delete candidates[i];\r\n        }\r\n        \r\n        // Reset vote count and candidate count\r\n        votingCount = 0;\r\n        countCandidates = 0;\r\n\r\n        // Emit event for the deleted voting session\r\n        emit VotingDeleted();\r\n    }\r\n\r\n    /**\r\n     * @dev Cancels the current voting session (functionally identical to deleteVoting)\r\n     * Can only be called by the admin when voting is not ongoing\r\n     */\r\n    function cancelVoting() public {\r\n        // Verify that only the admin can cancel a voting session\r\n        require(msg.sender == admin, \"Only admin can cancel a voting.\");\r\n        // Verify that a voting session exists\r\n        require(votingCreated, \"Voting has not been created.\");\r\n\r\n        \r\n        // Reset all voting session data\r\n        votingCreated = false;\r\n        votingStart = 0;\r\n        votingEnd = 0;\r\n        votingId = 0;\r\n        votingTitle = \"\";\r\n        \r\n        // Delete all candidates\r\n        for (uint i = 1; i <= countCandidates; i++) {\r\n            delete candidates[i];\r\n        }\r\n        \r\n        // Reset vote count and candidate count\r\n        votingCount = 0;\r\n        countCandidates = 0;\r\n\r\n        // Emit event for the deleted voting session\r\n        emit VotingDeleted();\r\n    }\r\n\r\n\r\n    \r\n    /**\r\n     * @dev Set the start and end dates for the voting period\r\n     * @param _startDate The UNIX timestamp for the start of voting\r\n     * @param _endDate The UNIX timestamp for the end of voting\r\n     */\r\n    function setDates(uint256 _startDate, uint256 _endDate) private {\r\n        // This check from the PDF '(_startDate + 1000000 > now)' is unusual. A simple ' _startDate > now ' is more common.\r\n        // We will implement a more standard check.\r\n\r\n        // Note: These requirements are already checked in the createVoting function\r\n        // require(votingStart == 0, \"Voting dates have already been set.\");\r\n        // require(_startDate > now, \"Start date must be in the future.\");\r\n        // require(_endDate > _startDate, \"End date must be after start date.\");\r\n\r\n        // Set the voting period timestamps\r\n        votingStart = _startDate;\r\n        votingEnd = _endDate;\r\n    }\r\n\r\n    /**\r\n     * @dev Add a new candidate to the election\r\n     * @param _id The ID of the candidate\r\n     * @param _name The name of the candidate\r\n     * @param _party The party of the candidate\r\n     */\r\n    function addCandidate(uint _id, string memory _name, string memory _party, string memory _imageUrl) private {\r\n        // Verify that only the admin can add a candidate\r\n        require(msg.sender == admin, \"Only admin can add a candidate.\");\r\n        \r\n        // Increment the candidate count\r\n        countCandidates++;\r\n        \r\n        // Create and store the new candidate\r\n        candidates[countCandidates] = Candidate(_id, _name, _party, _imageUrl, 0);\r\n    }\r\n\r\n\r\n\r\n\r\n    /**\r\n     * @dev Allows a voter to cast their    vote for a candidate\r\n     * @param _candidateID The ID of the candidate to vote for\r\n     * @param _voterAddress The unique identifier of the voter\r\n     */\r\n    function vote(uint _candidateID, address _voterAddress) public {\r\n\r\n\r\n        // Verify that the candidate ID is valid\r\n        require(_candidateID > 0 && _candidateID <= countCandidates, \"Invalid candidate ID.\");\r\n        \r\n        // Verify that the voter has not already voted\r\n        require(!checkVote(_voterAddress), \"You have already voted.\");\r\n\r\n        // Record the voter's address\r\n        voters[votingCount + 1] = _voterAddress;\r\n        // Increment the vote count\r\n        votingCount++;\r\n        \r\n        // Increment the vote count for the chosen candidate\r\n        candidates[_candidateID].voteCount++;\r\n\r\n        // Emit the Voted event\r\n        emit Voted(_candidateID, candidates[_candidateID].voteCount);\r\n    }\r\n\r\n\r\n\r\n\r\n    /**\r\n     * @dev Checks if a voter has already voted\r\n     * @param _voterAddress The unique identifier of the voter\r\n     * @return A boolean indicating whether the voter has already voted\r\n     */\r\n    function checkVote(address _voterAddress) public view returns (bool) {\r\n        // Verify that a voting session exists\r\n        require(votingCreated, \"Voting has not been created.\");\r\n        \r\n        // Check if the voter address exists in the voters mapping\r\n        for (uint i = 1; i <= votingCount; i++) {\r\n            if (voters[i] == _voterAddress) {\r\n                return true; // Voter has already voted\r\n            }\r\n        }\r\n        return false; // Voter has not voted\r\n    }\r\n\r\n    /**\r\n     * @dev Gets the total number of registered candidates\r\n     * @return The total candidate count\r\n     */\r\n    function getCountCandidates() public view returns (uint) {\r\n        return countCandidates;\r\n    }\r\n\r\n    /**\r\n     * @dev Returns whether a voting session has been created\r\n     * @return bool indicating if voting session exists\r\n     */\r\n    function isVotingCreated() public view returns (bool) {\r\n        return votingCreated;\r\n    }\r\n\r\n    /**\r\n     * @dev Retrieves details for a specific candidate\r\n     * @param _candidateID The ID of the candidate\r\n     * @return The candidate's ID, name, party, and vote count\r\n     */\r\n    function getCandidate(uint _candidateID)\r\n        public\r\n        view\r\n        returns (uint, string memory, string memory, string memory, uint)\r\n    {\r\n        // Verify that only the admin can get candidate details\r\n        require(msg.sender == admin, \"Only admin can get a candidate.\");\r\n        // Verify that a voting session exists\r\n        require(votingCreated, \"Voting has not been created.\");\r\n        // Verify that the candidate ID is valid\r\n        require(_candidateID > 0 && _candidateID <= countCandidates, \"Invalid candidate ID.\");\r\n        \r\n        // Get the candidate struct\r\n        Candidate memory c = candidates[_candidateID];\r\n        \r\n        // Return the candidate details\r\n        return (c.id, c.name, c.party, c.imageUrl, c.voteCount);\r\n    }\r\n\r\n    /**\r\n     * @dev Retrieves all candidates in the current voting session\r\n     * @return An array of all candidates\r\n     */\r\n    function getCandidates() public view returns (Candidate[] memory) {\r\n        // Verify that only the admin can get all candidates\r\n        require(msg.sender == admin, \"Only admin can get the candidates.\");\r\n        // Verify that a voting session exists\r\n        require(votingCreated, \"Voting has not been created.\");\r\n        \r\n        // Create an array to hold all candidates\r\n        Candidate[] memory candidatesList = new Candidate[](countCandidates);\r\n        \r\n        // Populate the array with all candidates\r\n        for (uint i = 1; i <= countCandidates; i++) {\r\n            candidatesList[i - 1] = candidates[i];\r\n        }\r\n        \r\n        // Return the array of candidates\r\n        return candidatesList;\r\n    }\r\n\r\n    /**\r\n     * @dev Retrieves the start and end dates of the voting period\r\n     * @return The start and end UNIX timestamps\r\n     */\r\n    function getDates() public view returns (uint256, uint256) {\r\n        // Verify that only the admin can get the voting dates\r\n        require(msg.sender == admin, \"Only admin can get the dates.\");\r\n        // Verify that a voting session exists\r\n        require(votingCreated, \"Voting has not been created.\");\r\n        \r\n        // Return the start and end timestamps\r\n        return (votingStart, votingEnd);\r\n    }\r\n}",
  "sourcePath": "C:\\Users\\Ryo\\Documents\\GitHub\\web3-voting\\blockchain\\contracts\\voting.sol",
  "compiler": {
    "name": "solc",
    "version": "0.8.0+commit.c7dfd78e.Emscripten.clang"
  },
  "schemaVersion": "3.4.16",
  "updatedAt": "2025-09-13T22:53:16.263Z",
  "devdoc": {
    "details": "A smart contract for managing decentralized voting sessions",
    "events": {
      "Voted(uint256,uint256)": {
        "details": "Event emitted when a vote is cast",
        "params": {
          "candidateId": "ID of the candidate who received the vote",
          "voteCount": "Updated vote count for the candidate"
        }
      },
      "VotingCreated(uint256,uint256,uint256,string,(uint256,string,string,string,uint256)[])": {
        "details": "Event emitted when a voting session is created",
        "params": {
          "candidates": "Array of candidates in the voting session",
          "votingEnd": "Timestamp when voting ends",
          "votingId": "ID of the created voting session",
          "votingStart": "Timestamp when voting starts",
          "votingTitle": "Title of the voting session"
        }
      },
      "VotingDeleted()": {
        "details": "Event emitted when a voting session is deleted"
      },
      "VotingStartedImmediately(uint256,uint256)": {
        "details": "Event emitted when voting is started immediately",
        "params": {
          "newEndTime": "New end timestamp",
          "newStartTime": "New start timestamp (current time)"
        }
      }
    },
    "kind": "dev",
    "methods": {
      "cancelVoting()": {
        "details": "Cancels the current voting session (functionally identical to deleteVoting) Can only be called by the admin when voting is not ongoing"
      },
      "checkVote(address)": {
        "details": "Checks if a voter has already voted",
        "params": {
          "_voterAddress": "The unique identifier of the voter"
        },
        "returns": {
          "_0": "A boolean indicating whether the voter has already voted"
        }
      },
      "constructor": {
        "details": "Constructor to set initial values when the contract is deployed"
      },
      "createVoting(uint256,string,uint256,uint256,(uint256,string,string,string,uint256)[])": {
        "details": "Creates a new voting session",
        "params": {
          "_candidates": "Array of candidate structs to add to the voting session",
          "_endDate": "The UNIX timestamp for the end of voting",
          "_startDate": "The UNIX timestamp for the start of voting",
          "_title": "The title of the voting session",
          "_votingId": "Unique identifier for the voting session"
        }
      },
      "deleteVoting()": {
        "details": "Deletes the current voting session Can only be called by the admin when voting is not ongoing"
      },
      "getCandidate(uint256)": {
        "details": "Retrieves details for a specific candidate",
        "params": {
          "_candidateID": "The ID of the candidate"
        },
        "returns": {
          "_0": "The candidate's ID, name, party, and vote count"
        }
      },
      "getCandidates()": {
        "details": "Retrieves all candidates in the current voting session",
        "returns": {
          "_0": "An array of all candidates"
        }
      },
      "getCountCandidates()": {
        "details": "Gets the total number of registered candidates",
        "returns": {
          "_0": "The total candidate count"
        }
      },
      "getDates()": {
        "details": "Retrieves the start and end dates of the voting period",
        "returns": {
          "_0": "The start and end UNIX timestamps"
        }
      },
      "isVotingCreated()": {
        "details": "Returns whether a voting session has been created",
        "returns": {
          "_0": "bool indicating if voting session exists"
        }
      },
      "startVotingImmediately(uint256)": {
        "details": "Start voting immediately and end at specific timestamp",
        "params": {
          "_endTimestamp": "Timestamp when voting should end"
        }
      },
      "vote(uint256,address)": {
        "details": "Allows a voter to cast their    vote for a candidate",
        "params": {
          "_candidateID": "The ID of the candidate to vote for",
          "_voterAddress": "The unique identifier of the voter"
        }
      }
    },
    "title": "Voting",
    "version": 1
  },
  "userdoc": {
    "kind": "user",
    "methods": {},
    "version": 1
  }
}