{
  "contractName": "Voting",
  "abi": [
    {
      "inputs": [],
      "stateMutability": "nonpayable",
      "type": "constructor"
    },
    {
      "anonymous": false,
      "inputs": [
        {
          "indexed": true,
          "internalType": "uint256",
          "name": "candidateId",
          "type": "uint256"
        },
        {
          "indexed": true,
          "internalType": "uint256",
          "name": "voteCount",
          "type": "uint256"
        }
      ],
      "name": "Voted",
      "type": "event"
    },
    {
      "anonymous": false,
      "inputs": [
        {
          "indexed": true,
          "internalType": "uint256",
          "name": "votingId",
          "type": "uint256"
        },
        {
          "indexed": true,
          "internalType": "uint256",
          "name": "votingStart",
          "type": "uint256"
        },
        {
          "indexed": true,
          "internalType": "uint256",
          "name": "votingEnd",
          "type": "uint256"
        },
        {
          "indexed": false,
          "internalType": "string",
          "name": "votingTitle",
          "type": "string"
        },
        {
          "components": [
            {
              "internalType": "uint256",
              "name": "id",
              "type": "uint256"
            },
            {
              "internalType": "string",
              "name": "name",
              "type": "string"
            },
            {
              "internalType": "string",
              "name": "party",
              "type": "string"
            },
            {
              "internalType": "uint256",
              "name": "voteCount",
              "type": "uint256"
            }
          ],
          "indexed": false,
          "internalType": "struct Voting.Candidate[]",
          "name": "candidates",
          "type": "tuple[]"
        }
      ],
      "name": "VotingCreated",
      "type": "event"
    },
    {
      "anonymous": false,
      "inputs": [],
      "name": "VotingDeleted",
      "type": "event"
    },
    {
      "inputs": [],
      "name": "admin",
      "outputs": [
        {
          "internalType": "address",
          "name": "",
          "type": "address"
        }
      ],
      "stateMutability": "view",
      "type": "function",
      "constant": true
    },
    {
      "inputs": [
        {
          "internalType": "uint256",
          "name": "_votingId",
          "type": "uint256"
        },
        {
          "internalType": "string",
          "name": "_title",
          "type": "string"
        },
        {
          "internalType": "uint256",
          "name": "_startDate",
          "type": "uint256"
        },
        {
          "internalType": "uint256",
          "name": "_endDate",
          "type": "uint256"
        },
        {
          "components": [
            {
              "internalType": "uint256",
              "name": "id",
              "type": "uint256"
            },
            {
              "internalType": "string",
              "name": "name",
              "type": "string"
            },
            {
              "internalType": "string",
              "name": "party",
              "type": "string"
            },
            {
              "internalType": "uint256",
              "name": "voteCount",
              "type": "uint256"
            }
          ],
          "internalType": "struct Voting.Candidate[]",
          "name": "_candidates",
          "type": "tuple[]"
        }
      ],
      "name": "createVoting",
      "outputs": [],
      "stateMutability": "nonpayable",
      "type": "function"
    },
    {
      "inputs": [],
      "name": "deleteVoting",
      "outputs": [],
      "stateMutability": "nonpayable",
      "type": "function"
    },
    {
      "inputs": [],
      "name": "cancelVoting",
      "outputs": [],
      "stateMutability": "nonpayable",
      "type": "function"
    },
    {
      "inputs": [
        {
          "internalType": "uint256",
          "name": "_candidateID",
          "type": "uint256"
        },
        {
          "internalType": "string",
          "name": "_voterId",
          "type": "string"
        }
      ],
      "name": "vote",
      "outputs": [],
      "stateMutability": "nonpayable",
      "type": "function"
    },
    {
      "inputs": [
        {
          "internalType": "string",
          "name": "_voterId",
          "type": "string"
        }
      ],
      "name": "checkVote",
      "outputs": [
        {
          "internalType": "bool",
          "name": "",
          "type": "bool"
        }
      ],
      "stateMutability": "view",
      "type": "function",
      "constant": true
    },
    {
      "inputs": [],
      "name": "getCountCandidates",
      "outputs": [
        {
          "internalType": "uint256",
          "name": "",
          "type": "uint256"
        }
      ],
      "stateMutability": "view",
      "type": "function",
      "constant": true
    },
    {
      "inputs": [
        {
          "internalType": "uint256",
          "name": "_candidateID",
          "type": "uint256"
        }
      ],
      "name": "getCandidate",
      "outputs": [
        {
          "internalType": "uint256",
          "name": "",
          "type": "uint256"
        },
        {
          "internalType": "string",
          "name": "",
          "type": "string"
        },
        {
          "internalType": "string",
          "name": "",
          "type": "string"
        },
        {
          "internalType": "uint256",
          "name": "",
          "type": "uint256"
        }
      ],
      "stateMutability": "view",
      "type": "function",
      "constant": true
    },
    {
      "inputs": [],
      "name": "getCandidates",
      "outputs": [
        {
          "components": [
            {
              "internalType": "uint256",
              "name": "id",
              "type": "uint256"
            },
            {
              "internalType": "string",
              "name": "name",
              "type": "string"
            },
            {
              "internalType": "string",
              "name": "party",
              "type": "string"
            },
            {
              "internalType": "uint256",
              "name": "voteCount",
              "type": "uint256"
            }
          ],
          "internalType": "struct Voting.Candidate[]",
          "name": "",
          "type": "tuple[]"
        }
      ],
      "stateMutability": "view",
      "type": "function",
      "constant": true
    },
    {
      "inputs": [],
      "name": "getDates",
      "outputs": [
        {
          "internalType": "uint256",
          "name": "",
          "type": "uint256"
        },
        {
          "internalType": "uint256",
          "name": "",
          "type": "uint256"
        }
      ],
      "stateMutability": "view",
      "type": "function",
      "constant": true
    }
  ],
  "bytecode": "0x608060405234801561001057600080fd5b506000600960006101000a81548160ff02191690831515021790555060006005819055506000600881905550336000806101000a81548173ffffffffffffffffffffffffffffffffffffffff021916908373ffffffffffffffffffffffffffffffffffffffff16021790555061263a8061008b6000396000f3fe608060405234801561001057600080fd5b506004361061009e5760003560e01c806335b8e8201161006657806335b8e820146101365780634f7a53541461016957806381f4b23214610173578063974b89d51461017d578063f851a440146101ad5761009e565b806306a49fce146100a35780630a84a217146100c157806316441813146100df5780631709919d146100fe578063241084751461011a575b600080fd5b6100ab6101cb565b6040516100b89190611f8d565b60405180910390f35b6100c96104fb565b6040516100d69190612201565b60405180910390f35b6100e7610505565b6040516100f592919061226f565b60405180910390f35b6101186004803603810190610113919061177c565b6105f3565b005b610134600480360381019061012f9190611728565b610925565b005b610150600480360381019061014b91906116ff565b610ad3565b604051610160949392919061221c565b60405180910390f35b610171610d87565b005b61017b610fb5565b005b610197600480360381019061019291906116be565b6111e3565b6040516101a49190611faf565b60405180910390f35b6101b56112a2565b6040516101c29190611f72565b60405180910390f35b606060008054906101000a900473ffffffffffffffffffffffffffffffffffffffff1673ffffffffffffffffffffffffffffffffffffffff163373ffffffffffffffffffffffffffffffffffffffff161461025b576040517f08c379a000000000000000000000000000000000000000000000000000000000815260040161025290612181565b60405180910390fd5b600960009054906101000a900460ff166102aa576040517f08c379a00000000000000000000000000000000000000000000000000000000081526004016102a190612101565b60405180910390fd5b600060055467ffffffffffffffff8111156102ee577f4e487b7100000000000000000000000000000000000000000000000000000000600052604160045260246000fd5b60405190808252806020026020018201604052801561032757816020015b61031461140b565b81526020019060019003908161030c5790505b5090506000600190505b60055481116104f3576001600082815260200190815260200160002060405180608001604052908160008201548152602001600182018054610372906124d4565b80601f016020809104026020016040519081016040528092919081815260200182805461039e906124d4565b80156103eb5780601f106103c0576101008083540402835291602001916103eb565b820191906000526020600020905b8154815290600101906020018083116103ce57829003601f168201915b50505050508152602001600282018054610404906124d4565b80601f0160208091040260200160405190810160405280929190818152602001828054610430906124d4565b801561047d5780601f106104525761010080835404028352916020019161047d565b820191906000526020600020905b81548152906001019060200180831161046057829003601f168201915b505050505081526020016003820154815250508260018361049e9190612416565b815181106104d5577f4e487b7100000000000000000000000000000000000000000000000000000000600052603260045260246000fd5b602002602001018190525080806104eb90612506565b915050610331565b508091505090565b6000600554905090565b60008060008054906101000a900473ffffffffffffffffffffffffffffffffffffffff1673ffffffffffffffffffffffffffffffffffffffff163373ffffffffffffffffffffffffffffffffffffffff1614610596576040517f08c379a000000000000000000000000000000000000000000000000000000000815260040161058d90612061565b60405180910390fd5b600960009054906101000a900460ff166105e5576040517f08c379a00000000000000000000000000000000000000000000000000000000081526004016105dc90612101565b60405180910390fd5b600754600654915091509091565b60008054906101000a900473ffffffffffffffffffffffffffffffffffffffff1673ffffffffffffffffffffffffffffffffffffffff163373ffffffffffffffffffffffffffffffffffffffff1614610681576040517f08c379a0000000000000000000000000000000000000000000000000000000008152600401610678906121a1565b60405180910390fd5b600960009054906101000a900460ff16156106d1576040517f08c379a00000000000000000000000000000000000000000000000000000000081526004016106c890612121565b60405180910390fd5b428311610713576040517f08c379a000000000000000000000000000000000000000000000000000000000815260040161070a90612141565b60405180910390fd5b828211610755576040517f08c379a000000000000000000000000000000000000000000000000000000000815260040161074c906120c1565b60405180910390fd5b42600754111561079a576040517f08c379a000000000000000000000000000000000000000000000000000000000815260040161079190612161565b60405180910390fd5b8460038190555083600490805190602001906107b7929190611433565b506107c283836112c6565b60005b81518110156108b8576108a582828151811061080a577f4e487b7100000000000000000000000000000000000000000000000000000000600052603260045260246000fd5b60200260200101516000015183838151811061084f577f4e487b7100000000000000000000000000000000000000000000000000000000600052603260045260246000fd5b602002602001015160200151848481518110610894577f4e487b7100000000000000000000000000000000000000000000000000000000600052603260045260246000fd5b6020026020010151604001516112d8565b80806108b090612506565b9150506107c5565b506001600960006101000a81548160ff0219169083151502179055506006546007546003547f049b8eb0966daa122e0faa23464e1c28e9726d1980707dc17c072d9b047a9e0d60046109086101cb565b604051610916929190611fca565b60405180910390a45050505050565b4260075411158015610938575042600654115b610977576040517f08c379a000000000000000000000000000000000000000000000000000000000815260040161096e906120a1565b60405180910390fd5b60008211801561098957506005548211155b6109c8576040517f08c379a00000000000000000000000000000000000000000000000000000000081526004016109bf906121e1565b60405180910390fd5b6109d1816111e3565b15610a11576040517f08c379a0000000000000000000000000000000000000000000000000000000008152600401610a0890612001565b60405180910390fd5b80600260006001600854610a2591906123c0565b81526020019081526020016000209080519060200190610a46929190611433565b5060086000815480929190610a5a90612506565b9190505550600160008381526020019081526020016000206003016000815480929190610a8690612506565b91905055506001600083815260200190815260200160002060030154827f84a5508ca0d85b42a876e75a9126f3ae7b43617ce60b170bf8805d34630bc65460405160405180910390a35050565b600060608060008060009054906101000a900473ffffffffffffffffffffffffffffffffffffffff1673ffffffffffffffffffffffffffffffffffffffff163373ffffffffffffffffffffffffffffffffffffffff1614610b69576040517f08c379a0000000000000000000000000000000000000000000000000000000008152600401610b6090612041565b60405180910390fd5b600960009054906101000a900460ff16610bb8576040517f08c379a0000000000000000000000000000000000000000000000000000000008152600401610baf90612101565b60405180910390fd5b600085118015610bca57506005548511155b610c09576040517f08c379a0000000000000000000000000000000000000000000000000000000008152600401610c00906121e1565b60405180910390fd5b60006001600087815260200190815260200160002060405180608001604052908160008201548152602001600182018054610c43906124d4565b80601f0160208091040260200160405190810160405280929190818152602001828054610c6f906124d4565b8015610cbc5780601f10610c9157610100808354040283529160200191610cbc565b820191906000526020600020905b815481529060010190602001808311610c9f57829003601f168201915b50505050508152602001600282018054610cd5906124d4565b80601f0160208091040260200160405190810160405280929190818152602001828054610d01906124d4565b8015610d4e5780601f10610d2357610100808354040283529160200191610d4e565b820191906000526020600020905b815481529060010190602001808311610d3157829003601f168201915b50505050508152602001600382015481525050905080600001518160200151826040015183606001519450945094509450509193509193565b60008054906101000a900473ffffffffffffffffffffffffffffffffffffffff1673ffffffffffffffffffffffffffffffffffffffff163373ffffffffffffffffffffffffffffffffffffffff1614610e15576040517f08c379a0000000000000000000000000000000000000000000000000000000008152600401610e0c906120e1565b60405180910390fd5b600960009054906101000a900460ff16610e64576040517f08c379a0000000000000000000000000000000000000000000000000000000008152600401610e5b90612101565b60405180910390fd5b426007541180610e75575042600654105b610eb4576040517f08c379a0000000000000000000000000000000000000000000000000000000008152600401610eab90612081565b60405180910390fd5b6000600960006101000a81548160ff0219169083151502179055506000600781905550600060068190555060006003819055506040518060200160405280600081525060049080519060200190610f0c929190611433565b506000600190505b6005548111610f765760016000828152602001908152602001600020600080820160009055600182016000610f4991906114b9565b600282016000610f5991906114b9565b600382016000905550508080610f6e90612506565b915050610f14565b50600060088190555060006005819055507fd6830bf62d30a7b09c873d3babdfcd68174689aa9a2fc3612ede6999000c446960405160405180910390a1565b60008054906101000a900473ffffffffffffffffffffffffffffffffffffffff1673ffffffffffffffffffffffffffffffffffffffff163373ffffffffffffffffffffffffffffffffffffffff1614611043576040517f08c379a000000000000000000000000000000000000000000000000000000000815260040161103a90612021565b60405180910390fd5b600960009054906101000a900460ff16611092576040517f08c379a000000000000000000000000000000000000000000000000000000000815260040161108990612101565b60405180910390fd5b4260075411806110a3575042600654105b6110e2576040517f08c379a00000000000000000000000000000000000000000000000000000000081526004016110d990612081565b60405180910390fd5b6000600960006101000a81548160ff021916908315150217905550600060078190555060006006819055506000600381905550604051806020016040528060008152506004908051906020019061113a929190611433565b506000600190505b60055481116111a4576001600082815260200190815260200160002060008082016000905560018201600061117791906114b9565b60028201600061118791906114b9565b60038201600090555050808061119c90612506565b915050611142565b50600060088190555060006005819055507fd6830bf62d30a7b09c873d3babdfcd68174689aa9a2fc3612ede6999000c446960405160405180910390a1565b6000600960009054906101000a900460ff16611234576040517f08c379a000000000000000000000000000000000000000000000000000000000815260040161122b90612101565b60405180910390fd5b6000600190505b60085481116112975782805190602001206002600083815260200190815260200160002060405161126c9190611f5b565b6040518091039020141561128457600191505061129d565b808061128f90612506565b91505061123b565b50600090505b919050565b60008054906101000a900473ffffffffffffffffffffffffffffffffffffffff1681565b81600781905550806006819055505050565b60008054906101000a900473ffffffffffffffffffffffffffffffffffffffff1673ffffffffffffffffffffffffffffffffffffffff163373ffffffffffffffffffffffffffffffffffffffff1614611366576040517f08c379a000000000000000000000000000000000000000000000000000000000815260040161135d906121c1565b60405180910390fd5b6005600081548092919061137990612506565b9190505550604051806080016040528084815260200183815260200182815260200160008152506001600060055481526020019081526020016000206000820151816000015560208201518160010190805190602001906113db929190611433565b5060408201518160020190805190602001906113f8929190611433565b5060608201518160030155905050505050565b6040518060800160405280600081526020016060815260200160608152602001600081525090565b82805461143f906124d4565b90600052602060002090601f01602090048101928261146157600085556114a8565b82601f1061147a57805160ff19168380011785556114a8565b828001600101855582156114a8579182015b828111156114a757825182559160200191906001019061148c565b5b5090506114b591906114f9565b5090565b5080546114c5906124d4565b6000825580601f106114d757506114f6565b601f0160209004906000526020600020908101906114f591906114f9565b5b50565b5b808211156115125760008160009055506001016114fa565b5090565b6000611529611524846122c9565b612298565b9050808382526020820190508260005b85811015611569578135850161154f8882611605565b845260208401935060208301925050600181019050611539565b5050509392505050565b6000611586611581846122f5565b612298565b90508281526020810184848401111561159e57600080fd5b6115a9848285612492565b509392505050565b600082601f8301126115c257600080fd5b81356115d2848260208601611516565b91505092915050565b600082601f8301126115ec57600080fd5b81356115fc848260208601611573565b91505092915050565b60006080828403121561161757600080fd5b6116216080612298565b90506000611631848285016116a9565b600083015250602082013567ffffffffffffffff81111561165157600080fd5b61165d848285016115db565b602083015250604082013567ffffffffffffffff81111561167d57600080fd5b611689848285016115db565b604083015250606061169d848285016116a9565b60608301525092915050565b6000813590506116b8816125ed565b92915050565b6000602082840312156116d057600080fd5b600082013567ffffffffffffffff8111156116ea57600080fd5b6116f6848285016115db565b91505092915050565b60006020828403121561171157600080fd5b600061171f848285016116a9565b91505092915050565b6000806040838503121561173b57600080fd5b6000611749858286016116a9565b925050602083013567ffffffffffffffff81111561176657600080fd5b611772858286016115db565b9150509250929050565b600080600080600060a0868803121561179457600080fd5b60006117a2888289016116a9565b955050602086013567ffffffffffffffff8111156117bf57600080fd5b6117cb888289016115db565b94505060406117dc888289016116a9565b93505060606117ed888289016116a9565b925050608086013567ffffffffffffffff81111561180a57600080fd5b611816888289016115b1565b9150509295509295909350565b600061182f8383611ed3565b905092915050565b6118408161244a565b82525050565b60006118518261235f565b61185b8185612382565b93508360208202850161186d85612325565b8060005b858110156118a9578484038952815161188a8582611823565b945061189583612375565b925060208a01995050600181019050611871565b50829750879550505050505092915050565b6118c48161245c565b82525050565b600081546118d7816124d4565b6118e18186612393565b945060018216600081146118fc576001811461190d57611940565b60ff19831686528186019350611940565b61191685612335565b60005b8381101561193857815481890152600182019150602081019050611919565b838801955050505b50505092915050565b60006119548261236a565b61195e818561239e565b935061196e8185602086016124a1565b611977816125dc565b840191505092915050565b600061198d8261236a565b61199781856123af565b93506119a78185602086016124a1565b6119b0816125dc565b840191505092915050565b600081546119c8816124d4565b6119d281866123af565b945060018216600081146119ed57600181146119ff57611a32565b60ff1983168652602086019350611a32565b611a088561234a565b60005b83811015611a2a57815481890152600182019150602081019050611a0b565b808801955050505b50505092915050565b6000611a486017836123af565b91507f596f75206861766520616c726561647920766f7465642e0000000000000000006000830152602082019050919050565b6000611a88601f836123af565b91507f4f6e6c792061646d696e2063616e2063616e63656c206120766f74696e672e006000830152602082019050919050565b6000611ac8601f836123af565b91507f4f6e6c792061646d696e2063616e2067657420612063616e6469646174652e006000830152602082019050919050565b6000611b08601d836123af565b91507f4f6e6c792061646d696e2063616e20676574207468652064617465732e0000006000830152602082019050919050565b6000611b486012836123af565b91507f566f74696e67206973206f6e676f696e672e00000000000000000000000000006000830152602082019050919050565b6000611b88601f836123af565b91507f566f74696e67206973206e6f742063757272656e746c79206163746976652e006000830152602082019050919050565b6000611bc86022836123af565b91507f456e642064617465206d7573742062652061667465722073746172742064617460008301527f652e0000000000000000000000000000000000000000000000000000000000006020830152604082019050919050565b6000611c2e601f836123af565b91507f4f6e6c792061646d696e2063616e2064656c657465206120766f74696e672e006000830152602082019050919050565b6000611c6e601c836123af565b91507f566f74696e6720686173206e6f74206265656e20637265617465642e000000006000830152602082019050919050565b6000611cae6020836123af565b91507f566f74696e672068617320616c7265616479206265656e20637265617465642e6000830152602082019050919050565b6000611cee6021836123af565b91507f53746172742064617465206d75737420626520696e207468652066757475726560008301527f2e000000000000000000000000000000000000000000000000000000000000006020830152604082019050919050565b6000611d546023836123af565b91507f566f74696e672068617320616c7265616479206265656e20636f6e666967757260008301527f65642e00000000000000000000000000000000000000000000000000000000006020830152604082019050919050565b6000611dba6022836123af565b91507f4f6e6c792061646d696e2063616e20676574207468652063616e64696461746560008301527f732e0000000000000000000000000000000000000000000000000000000000006020830152604082019050919050565b6000611e20601f836123af565b91507f4f6e6c792061646d696e2063616e20637265617465206120766f74696e672e006000830152602082019050919050565b6000611e60601f836123af565b91507f4f6e6c792061646d696e2063616e2061646420612063616e6469646174652e006000830152602082019050919050565b6000611ea06015836123af565b91507f496e76616c69642063616e6469646174652049442e00000000000000000000006000830152602082019050919050565b6000608083016000830151611eeb6000860182611f3d565b5060208301518482036020860152611f038282611949565b91505060408301518482036040860152611f1d8282611949565b9150506060830151611f326060860182611f3d565b508091505092915050565b611f4681612488565b82525050565b611f5581612488565b82525050565b6000611f6782846118ca565b915081905092915050565b6000602082019050611f876000830184611837565b92915050565b60006020820190508181036000830152611fa78184611846565b905092915050565b6000602082019050611fc460008301846118bb565b92915050565b60006040820190508181036000830152611fe481856119bb565b90508181036020830152611ff88184611846565b90509392505050565b6000602082019050818103600083015261201a81611a3b565b9050919050565b6000602082019050818103600083015261203a81611a7b565b9050919050565b6000602082019050818103600083015261205a81611abb565b9050919050565b6000602082019050818103600083015261207a81611afb565b9050919050565b6000602082019050818103600083015261209a81611b3b565b9050919050565b600060208201905081810360008301526120ba81611b7b565b9050919050565b600060208201905081810360008301526120da81611bbb565b9050919050565b600060208201905081810360008301526120fa81611c21565b9050919050565b6000602082019050818103600083015261211a81611c61565b9050919050565b6000602082019050818103600083015261213a81611ca1565b9050919050565b6000602082019050818103600083015261215a81611ce1565b9050919050565b6000602082019050818103600083015261217a81611d47565b9050919050565b6000602082019050818103600083015261219a81611dad565b9050919050565b600060208201905081810360008301526121ba81611e13565b9050919050565b600060208201905081810360008301526121da81611e53565b9050919050565b600060208201905081810360008301526121fa81611e93565b9050919050565b60006020820190506122166000830184611f4c565b92915050565b60006080820190506122316000830187611f4c565b81810360208301526122438186611982565b905081810360408301526122578185611982565b90506122666060830184611f4c565b95945050505050565b60006040820190506122846000830185611f4c565b6122916020830184611f4c565b9392505050565b6000604051905081810181811067ffffffffffffffff821117156122bf576122be6125ad565b5b8060405250919050565b600067ffffffffffffffff8211156122e4576122e36125ad565b5b602082029050602081019050919050565b600067ffffffffffffffff8211156123105761230f6125ad565b5b601f19601f8301169050602081019050919050565b6000819050602082019050919050565b60008190508160005260206000209050919050565b60008190508160005260206000209050919050565b600081519050919050565b600081519050919050565b6000602082019050919050565b600082825260208201905092915050565b600081905092915050565b600082825260208201905092915050565b600082825260208201905092915050565b60006123cb82612488565b91506123d683612488565b9250827fffffffffffffffffffffffffffffffffffffffffffffffffffffffffffffffff0382111561240b5761240a61254f565b5b828201905092915050565b600061242182612488565b915061242c83612488565b92508282101561243f5761243e61254f565b5b828203905092915050565b600061245582612468565b9050919050565b60008115159050919050565b600073ffffffffffffffffffffffffffffffffffffffff82169050919050565b6000819050919050565b82818337600083830152505050565b60005b838110156124bf5780820151818401526020810190506124a4565b838111156124ce576000848401525b50505050565b600060028204905060018216806124ec57607f821691505b60208210811415612500576124ff61257e565b5b50919050565b600061251182612488565b91507fffffffffffffffffffffffffffffffffffffffffffffffffffffffffffffffff8214156125445761254361254f565b5b600182019050919050565b7f4e487b7100000000000000000000000000000000000000000000000000000000600052601160045260246000fd5b7f4e487b7100000000000000000000000000000000000000000000000000000000600052602260045260246000fd5b7f4e487b7100000000000000000000000000000000000000000000000000000000600052604160045260246000fd5b6000601f19601f8301169050919050565b6125f681612488565b811461260157600080fd5b5056fea26469706673582212201853d2523b0ff8817639c70a4f3547e1f25bd181f55caccaf35fb43cc904f78964736f6c63430008000033",
  "immutableReferences": {},
  "source": "// SPDX-License-Identifier: MIT\r\n\r\n// File: contracts/Migrations.sol\r\n// This is a standard contract used by Truffle to manage migration history on the blockchain.\r\npragma solidity 0.8.0;\r\n\r\ncontract Migrations {\r\n    address public owner;\r\n    uint public last_completed_migration;\r\n\r\n    modifier restricted() {\r\n        require(msg.sender == owner, \"Access restricted to owner\");\r\n        _;\r\n    }\r\n\r\n    constructor() {\r\n        owner = msg.sender;\r\n    }\r\n\r\n    function setCompleted(uint completed) public restricted {\r\n        last_completed_migration = completed;\r\n    }\r\n\r\n    // This function is commented out as it points to an older pattern and can cause confusion.\r\n    // The core functionality for migrations is handled by Truffle's deployment scripts.\r\n    /*\r\n    function upgrade(address new_address) public restricted {\r\n        Migrations upgraded = Migrations(new_address);\r\n        upgraded.setCompleted(last_completed_migration);\r\n    }\r\n    */\r\n}\r\n\r\n\r\n// File: contracts/Voting.sol\r\n// This is the main smart contract for the decentralized voting application.\r\npragma solidity 0.8.0;\r\n\r\ncontract Voting {\r\n\r\n    // Admin address\r\n    address public admin;\r\n\r\n    // Struct to hold information about each candidate\r\n    struct Candidate {\r\n        uint id;\r\n        string name;\r\n        string party;\r\n        uint voteCount;\r\n    }\r\n\r\n    // Mappings to store data\r\n    mapping(uint => Candidate) private candidates; // Maps candidate ID to Candidate struct\r\n    mapping(uint => string) private voters;     // Maps voter address to a boolean indicating if they have voted\r\n\r\n    // State variables\r\n    uint private votingId;        // ID of the voting\r\n    string private votingTitle;   // Title of the voting\r\n    uint private countCandidates; // Total number of candidates\r\n    uint256 private votingEnd;    // Timestamp for when voting ends\r\n    uint256 private votingStart;  // Timestamp for when voting starts\r\n    uint private votingCount;  // Duration of the voting in seconds\r\n    bool private votingCreated;   // Boolean indicating if voting has been created\r\n\r\n    // Event to be emitted when a vote is cast\r\n    event Voted(uint indexed candidateId, uint indexed voteCount);\r\n    // Event to be emitted when a voting is created\r\n    event VotingCreated(uint indexed votingId, uint indexed votingStart, uint indexed votingEnd, string votingTitle, Candidate[] candidates);\r\n\r\n    // Event to be emitted when a voting is deleted\r\n    event VotingDeleted();\r\n\r\n\r\n    // Constructor to set initial values when the contract is deployed\r\n    constructor() {\r\n        votingCreated = false;\r\n        countCandidates = 0;\r\n        votingCount = 0;\r\n        admin = msg.sender;\r\n    }\r\n\r\n    // --- Functions ---\r\n\r\n\r\n    /**\r\n     * @dev Creates a new voting session.\r\n     * Can only be called by the admin.\r\n     * @param _title The title of the voting.\r\n     * @param _startDate The UNIX timestamp for the start of voting.\r\n     * @param _endDate The UNIX timestamp for the end of voting.\r\n     */\r\n\r\n\r\n    function createVoting(uint _votingId, string memory _title, uint256 _startDate, uint256 _endDate, Candidate[] memory _candidates) public {\r\n        // Require that the sender is the admin\r\n        require(msg.sender == admin, \"Only admin can create a voting.\");\r\n        // Require that the voting has not been created\r\n        require(!votingCreated, \"Voting has already been created.\");\r\n        // This check from the PDF '(_startDate + 1000000 > now)' is unusual. A simple ' _startDate > now ' is more common.\r\n        // We will implement a more standard check.\r\n        require(_startDate > block.timestamp, \"Start date must be in the future.\");\r\n        require(_endDate > _startDate, \"End date must be after start date.\");\r\n        require(votingStart <= block.timestamp, \"Voting has already been configured.\");\r\n\r\n        votingId = _votingId;\r\n        votingTitle = _title;\r\n        setDates(_startDate, _endDate);\r\n        for (uint i = 0; i < _candidates.length; i++) {\r\n            addCandidate(_candidates[i].id, _candidates[i].name, _candidates[i].party);\r\n        }\r\n        votingCreated = true;\r\n\r\n        emit VotingCreated(votingId, votingStart, votingEnd, votingTitle, getCandidates());\r\n    }\r\n\r\n    function deleteVoting() public {\r\n        require(msg.sender == admin, \"Only admin can delete a voting.\");\r\n        require(votingCreated, \"Voting has not been created.\");\r\n        require(votingStart > block.timestamp || votingEnd < block.timestamp, \"Voting is ongoing.\");\r\n        votingCreated = false;\r\n        votingStart = 0;\r\n        votingEnd = 0;\r\n        votingId = 0;\r\n        votingTitle = \"\";\r\n        for (uint i = 1; i <= countCandidates; i++) {\r\n            delete candidates[i];\r\n        }\r\n        votingCount = 0;\r\n        countCandidates = 0;\r\n\r\n        emit VotingDeleted();\r\n    }\r\n\r\n    function cancelVoting() public {\r\n        require(msg.sender == admin, \"Only admin can cancel a voting.\");\r\n        require(votingCreated, \"Voting has not been created.\");\r\n        require(votingStart > block.timestamp || votingEnd < block.timestamp, \"Voting is ongoing.\");\r\n        votingCreated = false;\r\n        votingStart = 0;\r\n                votingEnd = 0;\r\n        votingId = 0;\r\n        votingTitle = \"\";\r\n        for (uint i = 1; i <= countCandidates; i++) {\r\n            delete candidates[i];\r\n        }\r\n        votingCount = 0;\r\n        countCandidates = 0;\r\n\r\n        emit VotingDeleted();\r\n    }\r\n\r\n\r\n    \r\n    /**\r\n     * @dev Set the start and end dates for the voting period.\r\n     * Can only be set once. Start date must be in the future. End date must be after start date.\r\n     * @param _startDate The UNIX timestamp for the start of voting.\r\n     * @param _endDate The UNIX timestamp for the end of voting.\r\n     */\r\n    function setDates(uint256 _startDate, uint256 _endDate) private {\r\n        // This check from the PDF '(_startDate + 1000000 > now)' is unusual. A simple ' _startDate > now ' is more common.\r\n        // We will implement a more standard check.\r\n\r\n\r\n        // require(votingStart == 0, \"Voting dates have already been set.\");\r\n        // require(_startDate > now, \"Start date must be in the future.\");\r\n        // require(_endDate > _startDate, \"End date must be after start date.\");\r\n\r\n        votingStart = _startDate;\r\n        votingEnd = _endDate;\r\n    }\r\n\r\n    /**\r\n     * @dev Add a new candidate to the election.\r\n     * Can only be called before voting has started.\r\n     * @param _name The name of the candidate.\r\n     * @param _party The party of the candidate.\r\n     */\r\n    function addCandidate(uint _id, string memory _name, string memory _party) private {\r\n        require(msg.sender == admin, \"Only admin can add a candidate.\");\r\n        countCandidates++;\r\n        candidates[countCandidates] = Candidate(_id, _name, _party, 0);\r\n    }\r\n\r\n\r\n\r\n\r\n    /**\r\n     * @dev Allows a registered voter to cast their vote.\r\n     * @param _candidateID The ID of the candidate to vote for.\r\n     */\r\n    function vote(uint _candidateID, string memory _voterId) public {\r\n        // Require that voting is currently active\r\n        require(votingStart <= block.timestamp && votingEnd > block.timestamp, \"Voting is not currently active.\");\r\n\r\n        // Require that the candidate ID is valid\r\n        require(_candidateID > 0 && _candidateID <= countCandidates, \"Invalid candidate ID.\");\r\n        \r\n        // Require that the voter has not already voted\r\n        require(!checkVote(_voterId), \"You have already voted.\");\r\n\r\n        // Record that the voter has voted\r\n        voters[votingCount + 1] = _voterId;\r\n        votingCount++;\r\n        \r\n        // Increment the vote count for the chosen candidate\r\n        candidates[_candidateID].voteCount++;\r\n\r\n        // Emit the Voted event\r\n        emit Voted(_candidateID, candidates[_candidateID].voteCount);\r\n    }\r\n\r\n\r\n\r\n\r\n    /**\r\n     * @dev Checks if the current message sender has already voted.\r\n     * @return A boolean indicating the voting status.\r\n     */\r\n    function checkVote(string memory _voterId) public view returns (bool) {\r\n        require(votingCreated, \"Voting has not been created.\");\r\n        for (uint i = 1; i <= votingCount; i++) {\r\n            if (keccak256(bytes(voters[i])) == keccak256(bytes(_voterId))) {\r\n                return true;\r\n            }\r\n        }\r\n        return false;\r\n    }\r\n\r\n    /**\r\n     * @dev Gets the total number of registered candidates.\r\n     * @return The total candidate count.\r\n     */\r\n    function getCountCandidates() public view returns (uint) {\r\n        return countCandidates;\r\n    }\r\n\r\n    /**\r\n     * @dev Retrieves details for a specific candidate.\r\n     * @param _candidateID The ID of the candidate.\r\n     * @return The candidate's ID, name, party, and vote count.\r\n     */\r\n    function getCandidate(uint _candidateID)\r\n        public\r\n        view\r\n        returns (uint, string memory, string memory, uint)\r\n    {\r\n        require(msg.sender == admin, \"Only admin can get a candidate.\");\r\n        require(votingCreated, \"Voting has not been created.\");\r\n        require(_candidateID > 0 && _candidateID <= countCandidates, \"Invalid candidate ID.\");\r\n        Candidate memory c = candidates[_candidateID];\r\n        return (c.id, c.name, c.party, c.voteCount);\r\n    }\r\n\r\n\r\n    function getCandidates() public view returns (Candidate[] memory) {\r\n        require(msg.sender == admin, \"Only admin can get the candidates.\");\r\n        require(votingCreated, \"Voting has not been created.\");\r\n        Candidate[] memory candidatesList = new Candidate[](countCandidates);\r\n        for (uint i = 1; i <= countCandidates; i++) {\r\n            candidatesList[i - 1] = candidates[i];\r\n        }\r\n        return candidatesList;\r\n    }\r\n\r\n    /**\r\n     * @dev Retrieves the start and end dates of the voting period.\r\n     * @return The start and end UNIX timestamps.\r\n     */\r\n    function getDates() public view returns (uint256, uint256) {\r\n        require(msg.sender == admin, \"Only admin can get the dates.\");\r\n        require(votingCreated, \"Voting has not been created.\");\r\n        return (votingStart, votingEnd);\r\n    }\r\n}\r\n",
  "sourcePath": "C:\\Users\\Ryo\\Documents\\GitHub\\web3-voting\\blockchain\\contracts\\voting.sol",
  "compiler": {
    "name": "solc",
    "version": "0.8.0+commit.c7dfd78e.Emscripten.clang"
  },
  "schemaVersion": "3.4.16",
  "updatedAt": "2025-08-11T13:53:27.805Z",
  "networkType": "ethereum",
  "devdoc": {
    "kind": "dev",
    "methods": {
      "checkVote(string)": {
        "details": "Checks if the current message sender has already voted.",
        "returns": {
          "_0": "A boolean indicating the voting status."
        }
      },
      "createVoting(uint256,string,uint256,uint256,(uint256,string,string,uint256)[])": {
        "details": "Creates a new voting session. Can only be called by the admin.",
        "params": {
          "_endDate": "The UNIX timestamp for the end of voting.",
          "_startDate": "The UNIX timestamp for the start of voting.",
          "_title": "The title of the voting."
        }
      },
      "getCandidate(uint256)": {
        "details": "Retrieves details for a specific candidate.",
        "params": {
          "_candidateID": "The ID of the candidate."
        },
        "returns": {
          "_0": "The candidate's ID, name, party, and vote count."
        }
      },
      "getCountCandidates()": {
        "details": "Gets the total number of registered candidates.",
        "returns": {
          "_0": "The total candidate count."
        }
      },
      "getDates()": {
        "details": "Retrieves the start and end dates of the voting period.",
        "returns": {
          "_0": "The start and end UNIX timestamps."
        }
      },
      "vote(uint256,string)": {
        "details": "Allows a registered voter to cast their vote.",
        "params": {
          "_candidateID": "The ID of the candidate to vote for."
        }
      }
    },
    "version": 1
  },
  "userdoc": {
    "kind": "user",
    "methods": {},
    "version": 1
  }
}