{
  "contractName": "Voting",
  "abi": [
    {
      "inputs": [],
      "stateMutability": "nonpayable",
      "type": "constructor"
    },
    {
      "anonymous": false,
      "inputs": [
        {
          "indexed": true,
          "internalType": "uint256",
          "name": "candidateId",
          "type": "uint256"
        },
        {
          "indexed": true,
          "internalType": "uint256",
          "name": "voteCount",
          "type": "uint256"
        }
      ],
      "name": "Voted",
      "type": "event"
    },
    {
      "anonymous": false,
      "inputs": [
        {
          "indexed": true,
          "internalType": "uint256",
          "name": "votingId",
          "type": "uint256"
        },
        {
          "indexed": true,
          "internalType": "uint256",
          "name": "votingStart",
          "type": "uint256"
        },
        {
          "indexed": true,
          "internalType": "uint256",
          "name": "votingEnd",
          "type": "uint256"
        },
        {
          "indexed": false,
          "internalType": "string",
          "name": "votingTitle",
          "type": "string"
        },
        {
          "components": [
            {
              "internalType": "uint256",
              "name": "id",
              "type": "uint256"
            },
            {
              "internalType": "string",
              "name": "name",
              "type": "string"
            },
            {
              "internalType": "string",
              "name": "party",
              "type": "string"
            },
            {
              "internalType": "uint256",
              "name": "voteCount",
              "type": "uint256"
            }
          ],
          "indexed": false,
          "internalType": "struct Voting.Candidate[]",
          "name": "candidates",
          "type": "tuple[]"
        }
      ],
      "name": "VotingCreated",
      "type": "event"
    },
    {
      "anonymous": false,
      "inputs": [],
      "name": "VotingDeleted",
      "type": "event"
    },
    {
      "anonymous": false,
      "inputs": [
        {
          "indexed": true,
          "internalType": "uint256",
          "name": "newStartTime",
          "type": "uint256"
        },
        {
          "indexed": true,
          "internalType": "uint256",
          "name": "newEndTime",
          "type": "uint256"
        }
      ],
      "name": "VotingStartedImmediately",
      "type": "event"
    },
    {
      "inputs": [],
      "name": "admin",
      "outputs": [
        {
          "internalType": "address",
          "name": "",
          "type": "address"
        }
      ],
      "stateMutability": "view",
      "type": "function",
      "constant": true
    },
    {
      "inputs": [
        {
          "internalType": "uint256",
          "name": "_votingId",
          "type": "uint256"
        },
        {
          "internalType": "string",
          "name": "_title",
          "type": "string"
        },
        {
          "internalType": "uint256",
          "name": "_startDate",
          "type": "uint256"
        },
        {
          "internalType": "uint256",
          "name": "_endDate",
          "type": "uint256"
        },
        {
          "components": [
            {
              "internalType": "uint256",
              "name": "id",
              "type": "uint256"
            },
            {
              "internalType": "string",
              "name": "name",
              "type": "string"
            },
            {
              "internalType": "string",
              "name": "party",
              "type": "string"
            },
            {
              "internalType": "uint256",
              "name": "voteCount",
              "type": "uint256"
            }
          ],
          "internalType": "struct Voting.Candidate[]",
          "name": "_candidates",
          "type": "tuple[]"
        }
      ],
      "name": "createVoting",
      "outputs": [],
      "stateMutability": "nonpayable",
      "type": "function"
    },
    {
      "inputs": [
        {
          "internalType": "uint256",
          "name": "_endTimestamp",
          "type": "uint256"
        }
      ],
      "name": "startVotingImmediately",
      "outputs": [],
      "stateMutability": "nonpayable",
      "type": "function"
    },
    {
      "inputs": [],
      "name": "deleteVoting",
      "outputs": [],
      "stateMutability": "nonpayable",
      "type": "function"
    },
    {
      "inputs": [],
      "name": "cancelVoting",
      "outputs": [],
      "stateMutability": "nonpayable",
      "type": "function"
    },
    {
      "inputs": [
        {
          "internalType": "uint256",
          "name": "_candidateID",
          "type": "uint256"
        },
        {
          "internalType": "address",
          "name": "_voterAddress",
          "type": "address"
        }
      ],
      "name": "vote",
      "outputs": [],
      "stateMutability": "nonpayable",
      "type": "function"
    },
    {
      "inputs": [
        {
          "internalType": "address",
          "name": "_voterAddress",
          "type": "address"
        }
      ],
      "name": "checkVote",
      "outputs": [
        {
          "internalType": "bool",
          "name": "",
          "type": "bool"
        }
      ],
      "stateMutability": "view",
      "type": "function",
      "constant": true
    },
    {
      "inputs": [],
      "name": "getCountCandidates",
      "outputs": [
        {
          "internalType": "uint256",
          "name": "",
          "type": "uint256"
        }
      ],
      "stateMutability": "view",
      "type": "function",
      "constant": true
    },
    {
      "inputs": [],
      "name": "isVotingCreated",
      "outputs": [
        {
          "internalType": "bool",
          "name": "",
          "type": "bool"
        }
      ],
      "stateMutability": "view",
      "type": "function",
      "constant": true
    },
    {
      "inputs": [
        {
          "internalType": "uint256",
          "name": "_candidateID",
          "type": "uint256"
        }
      ],
      "name": "getCandidate",
      "outputs": [
        {
          "internalType": "uint256",
          "name": "",
          "type": "uint256"
        },
        {
          "internalType": "string",
          "name": "",
          "type": "string"
        },
        {
          "internalType": "string",
          "name": "",
          "type": "string"
        },
        {
          "internalType": "uint256",
          "name": "",
          "type": "uint256"
        }
      ],
      "stateMutability": "view",
      "type": "function",
      "constant": true
    },
    {
      "inputs": [],
      "name": "getCandidates",
      "outputs": [
        {
          "components": [
            {
              "internalType": "uint256",
              "name": "id",
              "type": "uint256"
            },
            {
              "internalType": "string",
              "name": "name",
              "type": "string"
            },
            {
              "internalType": "string",
              "name": "party",
              "type": "string"
            },
            {
              "internalType": "uint256",
              "name": "voteCount",
              "type": "uint256"
            }
          ],
          "internalType": "struct Voting.Candidate[]",
          "name": "",
          "type": "tuple[]"
        }
      ],
      "stateMutability": "view",
      "type": "function",
      "constant": true
    },
    {
      "inputs": [],
      "name": "getDates",
      "outputs": [
        {
          "internalType": "uint256",
          "name": "",
          "type": "uint256"
        },
        {
          "internalType": "uint256",
          "name": "",
          "type": "uint256"
        }
      ],
      "stateMutability": "view",
      "type": "function",
      "constant": true
    }
  ],
  "bytecode": "0x608060405234801561001057600080fd5b506000600960006101000a81548160ff02191690831515021790555060006005819055506000600881905550336000806101000a81548173ffffffffffffffffffffffffffffffffffffffff021916908373ffffffffffffffffffffffffffffffffffffffff16021790555061293c8061008b6000396000f3fe608060405234801561001057600080fd5b50600436106100b45760003560e01c80634f7a5354116100715780634f7a53541461017f5780635a0857d41461018957806381f4b232146101b9578063a13b83b9146101c3578063a75705a3146101df578063f851a440146101fd576100b4565b806302d947ef146100b957806306a49fce146100d55780630a84a217146100f357806316441813146101115780631709919d1461013057806335b8e8201461014c575b600080fd5b6100d360048036038101906100ce919061199b565b61021b565b005b6100dd6103f3565b6040516100ea9190612238565b60405180910390f35b6100fb610723565b604051610108919061250c565b60405180910390f35b61011961072d565b60405161012792919061257a565b60405180910390f35b61014a600480360381019061014591906119d7565b61081b565b005b61016660048036038101906101619190611972565b610b4d565b6040516101769493929190612527565b60405180910390f35b610187610e01565b005b6101a3600480360381019061019e9190611949565b61102f565b6040516101b0919061225a565b60405180910390f35b6101c161111f565b005b6101dd60048036038101906101d89190611972565b61134d565b005b6101e7611501565b6040516101f4919061225a565b60405180910390f35b610205611518565b604051610212919061221d565b60405180910390f35b426007541115801561022e575042600654115b61026d576040517f08c379a0000000000000000000000000000000000000000000000000000000008152600401610264906123ac565b60405180910390fd5b60008211801561027f57506005548211155b6102be576040517f08c379a00000000000000000000000000000000000000000000000000000000081526004016102b5906124ec565b60405180910390fd5b6102c78161102f565b15610307576040517f08c379a00000000000000000000000000000000000000000000000000000000081526004016102fe906122cc565b60405180910390fd5b8060026000600160085461031b91906126ab565b815260200190815260200160002060006101000a81548173ffffffffffffffffffffffffffffffffffffffff021916908373ffffffffffffffffffffffffffffffffffffffff1602179055506008600081548092919061037a906127f1565b91905055506001600083815260200190815260200160002060030160008154809291906103a6906127f1565b91905055506001600083815260200190815260200160002060030154827f84a5508ca0d85b42a876e75a9126f3ae7b43617ce60b170bf8805d34630bc65460405160405180910390a35050565b606060008054906101000a900473ffffffffffffffffffffffffffffffffffffffff1673ffffffffffffffffffffffffffffffffffffffff163373ffffffffffffffffffffffffffffffffffffffff1614610483576040517f08c379a000000000000000000000000000000000000000000000000000000000815260040161047a9061248c565b60405180910390fd5b600960009054906101000a900460ff166104d2576040517f08c379a00000000000000000000000000000000000000000000000000000000081526004016104c99061240c565b60405180910390fd5b600060055467ffffffffffffffff811115610516577f4e487b7100000000000000000000000000000000000000000000000000000000600052604160045260246000fd5b60405190808252806020026020018201604052801561054f57816020015b61053c611681565b8152602001906001900390816105345790505b5090506000600190505b600554811161071b57600160008281526020019081526020016000206040518060800160405290816000820154815260200160018201805461059a906127bf565b80601f01602080910402602001604051908101604052809291908181526020018280546105c6906127bf565b80156106135780601f106105e857610100808354040283529160200191610613565b820191906000526020600020905b8154815290600101906020018083116105f657829003601f168201915b5050505050815260200160028201805461062c906127bf565b80601f0160208091040260200160405190810160405280929190818152602001828054610658906127bf565b80156106a55780601f1061067a576101008083540402835291602001916106a5565b820191906000526020600020905b81548152906001019060200180831161068857829003601f168201915b50505050508152602001600382015481525050826001836106c69190612701565b815181106106fd577f4e487b7100000000000000000000000000000000000000000000000000000000600052603260045260246000fd5b60200260200101819052508080610713906127f1565b915050610559565b508091505090565b6000600554905090565b60008060008054906101000a900473ffffffffffffffffffffffffffffffffffffffff1673ffffffffffffffffffffffffffffffffffffffff163373ffffffffffffffffffffffffffffffffffffffff16146107be576040517f08c379a00000000000000000000000000000000000000000000000000000000081526004016107b59061234c565b60405180910390fd5b600960009054906101000a900460ff1661080d576040517f08c379a00000000000000000000000000000000000000000000000000000000081526004016108049061240c565b60405180910390fd5b600754600654915091509091565b60008054906101000a900473ffffffffffffffffffffffffffffffffffffffff1673ffffffffffffffffffffffffffffffffffffffff163373ffffffffffffffffffffffffffffffffffffffff16146108a9576040517f08c379a00000000000000000000000000000000000000000000000000000000081526004016108a0906124ac565b60405180910390fd5b600960009054906101000a900460ff16156108f9576040517f08c379a00000000000000000000000000000000000000000000000000000000081526004016108f09061242c565b60405180910390fd5b42831161093b576040517f08c379a00000000000000000000000000000000000000000000000000000000081526004016109329061244c565b60405180910390fd5b82821161097d576040517f08c379a0000000000000000000000000000000000000000000000000000000008152600401610974906123cc565b60405180910390fd5b4260075411156109c2576040517f08c379a00000000000000000000000000000000000000000000000000000000081526004016109b99061246c565b60405180910390fd5b8460038190555083600490805190602001906109df9291906116a9565b506109ea838361153c565b60005b8151811015610ae057610acd828281518110610a32577f4e487b7100000000000000000000000000000000000000000000000000000000600052603260045260246000fd5b602002602001015160000151838381518110610a77577f4e487b7100000000000000000000000000000000000000000000000000000000600052603260045260246000fd5b602002602001015160200151848481518110610abc577f4e487b7100000000000000000000000000000000000000000000000000000000600052603260045260246000fd5b60200260200101516040015161154e565b8080610ad8906127f1565b9150506109ed565b506001600960006101000a81548160ff0219169083151502179055506006546007546003547f049b8eb0966daa122e0faa23464e1c28e9726d1980707dc17c072d9b047a9e0d6004610b306103f3565b604051610b3e929190612275565b60405180910390a45050505050565b600060608060008060009054906101000a900473ffffffffffffffffffffffffffffffffffffffff1673ffffffffffffffffffffffffffffffffffffffff163373ffffffffffffffffffffffffffffffffffffffff1614610be3576040517f08c379a0000000000000000000000000000000000000000000000000000000008152600401610bda9061232c565b60405180910390fd5b600960009054906101000a900460ff16610c32576040517f08c379a0000000000000000000000000000000000000000000000000000000008152600401610c299061240c565b60405180910390fd5b600085118015610c4457506005548511155b610c83576040517f08c379a0000000000000000000000000000000000000000000000000000000008152600401610c7a906124ec565b60405180910390fd5b60006001600087815260200190815260200160002060405180608001604052908160008201548152602001600182018054610cbd906127bf565b80601f0160208091040260200160405190810160405280929190818152602001828054610ce9906127bf565b8015610d365780601f10610d0b57610100808354040283529160200191610d36565b820191906000526020600020905b815481529060010190602001808311610d1957829003601f168201915b50505050508152602001600282018054610d4f906127bf565b80601f0160208091040260200160405190810160405280929190818152602001828054610d7b906127bf565b8015610dc85780601f10610d9d57610100808354040283529160200191610dc8565b820191906000526020600020905b815481529060010190602001808311610dab57829003601f168201915b50505050508152602001600382015481525050905080600001518160200151826040015183606001519450945094509450509193509193565b60008054906101000a900473ffffffffffffffffffffffffffffffffffffffff1673ffffffffffffffffffffffffffffffffffffffff163373ffffffffffffffffffffffffffffffffffffffff1614610e8f576040517f08c379a0000000000000000000000000000000000000000000000000000000008152600401610e86906123ec565b60405180910390fd5b600960009054906101000a900460ff16610ede576040517f08c379a0000000000000000000000000000000000000000000000000000000008152600401610ed59061240c565b60405180910390fd5b426007541180610eef575042600654105b610f2e576040517f08c379a0000000000000000000000000000000000000000000000000000000008152600401610f259061236c565b60405180910390fd5b6000600960006101000a81548160ff0219169083151502179055506000600781905550600060068190555060006003819055506040518060200160405280600081525060049080519060200190610f869291906116a9565b506000600190505b6005548111610ff05760016000828152602001908152602001600020600080820160009055600182016000610fc3919061172f565b600282016000610fd3919061172f565b600382016000905550508080610fe8906127f1565b915050610f8e565b50600060088190555060006005819055507fd6830bf62d30a7b09c873d3babdfcd68174689aa9a2fc3612ede6999000c446960405160405180910390a1565b6000600960009054906101000a900460ff16611080576040517f08c379a00000000000000000000000000000000000000000000000000000000081526004016110779061240c565b60405180910390fd5b6000600190505b6008548111611114578273ffffffffffffffffffffffffffffffffffffffff166002600083815260200190815260200160002060009054906101000a900473ffffffffffffffffffffffffffffffffffffffff1673ffffffffffffffffffffffffffffffffffffffff16141561110157600191505061111a565b808061110c906127f1565b915050611087565b50600090505b919050565b60008054906101000a900473ffffffffffffffffffffffffffffffffffffffff1673ffffffffffffffffffffffffffffffffffffffff163373ffffffffffffffffffffffffffffffffffffffff16146111ad576040517f08c379a00000000000000000000000000000000000000000000000000000000081526004016111a4906122ec565b60405180910390fd5b600960009054906101000a900460ff166111fc576040517f08c379a00000000000000000000000000000000000000000000000000000000081526004016111f39061240c565b60405180910390fd5b42600754118061120d575042600654105b61124c576040517f08c379a00000000000000000000000000000000000000000000000000000000081526004016112439061236c565b60405180910390fd5b6000600960006101000a81548160ff02191690831515021790555060006007819055506000600681905550600060038190555060405180602001604052806000815250600490805190602001906112a49291906116a9565b506000600190505b600554811161130e57600160008281526020019081526020016000206000808201600090556001820160006112e1919061172f565b6002820160006112f1919061172f565b600382016000905550508080611306906127f1565b9150506112ac565b50600060088190555060006005819055507fd6830bf62d30a7b09c873d3babdfcd68174689aa9a2fc3612ede6999000c446960405160405180910390a1565b60008054906101000a900473ffffffffffffffffffffffffffffffffffffffff1673ffffffffffffffffffffffffffffffffffffffff163373ffffffffffffffffffffffffffffffffffffffff16146113db576040517f08c379a00000000000000000000000000000000000000000000000000000000081526004016113d29061238c565b60405180910390fd5b600960009054906101000a900460ff1661142a576040517f08c379a00000000000000000000000000000000000000000000000000000000081526004016114219061240c565b60405180910390fd5b42811161146c576040517f08c379a0000000000000000000000000000000000000000000000000000000008152600401611463906122ac565b60405180910390fd5b610e104261147a91906126ab565b8110156114bc576040517f08c379a00000000000000000000000000000000000000000000000000000000081526004016114b39061230c565b60405180910390fd5b6000429050806007819055508160068190555081817f723b4054c0ad56f1c990e751937b4e01f89a590e9953b5aba06d1f68fb940d8160405160405180910390a35050565b6000600960009054906101000a900460ff16905090565b60008054906101000a900473ffffffffffffffffffffffffffffffffffffffff1681565b81600781905550806006819055505050565b60008054906101000a900473ffffffffffffffffffffffffffffffffffffffff1673ffffffffffffffffffffffffffffffffffffffff163373ffffffffffffffffffffffffffffffffffffffff16146115dc576040517f08c379a00000000000000000000000000000000000000000000000000000000081526004016115d3906124cc565b60405180910390fd5b600560008154809291906115ef906127f1565b9190505550604051806080016040528084815260200183815260200182815260200160008152506001600060055481526020019081526020016000206000820151816000015560208201518160010190805190602001906116519291906116a9565b50604082015181600201908051906020019061166e9291906116a9565b5060608201518160030155905050505050565b6040518060800160405280600081526020016060815260200160608152602001600081525090565b8280546116b5906127bf565b90600052602060002090601f0160209004810192826116d7576000855561171e565b82601f106116f057805160ff191683800117855561171e565b8280016001018555821561171e579182015b8281111561171d578251825591602001919060010190611702565b5b50905061172b919061176f565b5090565b50805461173b906127bf565b6000825580601f1061174d575061176c565b601f01602090049060005260206000209081019061176b919061176f565b5b50565b5b80821115611788576000816000905550600101611770565b5090565b600061179f61179a846125d4565b6125a3565b9050808382526020820190508260005b858110156117df57813585016117c58882611890565b8452602084019350602083019250506001810190506117af565b5050509392505050565b60006117fc6117f784612600565b6125a3565b90508281526020810184848401111561181457600080fd5b61181f84828561277d565b509392505050565b600081359050611836816128d8565b92915050565b600082601f83011261184d57600080fd5b813561185d84826020860161178c565b91505092915050565b600082601f83011261187757600080fd5b81356118878482602086016117e9565b91505092915050565b6000608082840312156118a257600080fd5b6118ac60806125a3565b905060006118bc84828501611934565b600083015250602082013567ffffffffffffffff8111156118dc57600080fd5b6118e884828501611866565b602083015250604082013567ffffffffffffffff81111561190857600080fd5b61191484828501611866565b604083015250606061192884828501611934565b60608301525092915050565b600081359050611943816128ef565b92915050565b60006020828403121561195b57600080fd5b600061196984828501611827565b91505092915050565b60006020828403121561198457600080fd5b600061199284828501611934565b91505092915050565b600080604083850312156119ae57600080fd5b60006119bc85828601611934565b92505060206119cd85828601611827565b9150509250929050565b600080600080600060a086880312156119ef57600080fd5b60006119fd88828901611934565b955050602086013567ffffffffffffffff811115611a1a57600080fd5b611a2688828901611866565b9450506040611a3788828901611934565b9350506060611a4888828901611934565b925050608086013567ffffffffffffffff811115611a6557600080fd5b611a718882890161183c565b9150509295509295909350565b6000611a8a8383612195565b905092915050565b611a9b81612735565b82525050565b6000611aac82612655565b611ab68185612678565b935083602082028501611ac885612630565b8060005b85811015611b045784840389528151611ae58582611a7e565b9450611af08361266b565b925060208a01995050600181019050611acc565b50829750879550505050505092915050565b611b1f81612747565b82525050565b6000611b3082612660565b611b3a8185612689565b9350611b4a81856020860161278c565b611b53816128c7565b840191505092915050565b6000611b6982612660565b611b73818561269a565b9350611b8381856020860161278c565b611b8c816128c7565b840191505092915050565b60008154611ba4816127bf565b611bae818661269a565b94506001821660008114611bc95760018114611bdb57611c0e565b60ff1983168652602086019350611c0e565b611be485612640565b60005b83811015611c0657815481890152600182019150602081019050611be7565b808801955050505b50505092915050565b6000611c24601f8361269a565b91507f456e642074696d65206d75737420626520696e20746865206675747572652e006000830152602082019050919050565b6000611c6460178361269a565b91507f596f75206861766520616c726561647920766f7465642e0000000000000000006000830152602082019050919050565b6000611ca4601f8361269a565b91507f4f6e6c792061646d696e2063616e2063616e63656c206120766f74696e672e006000830152602082019050919050565b6000611ce460218361269a565b91507f566f74696e67206d757374206c617374206174206c65617374203120686f757260008301527f2e000000000000000000000000000000000000000000000000000000000000006020830152604082019050919050565b6000611d4a601f8361269a565b91507f4f6e6c792061646d696e2063616e2067657420612063616e6469646174652e006000830152602082019050919050565b6000611d8a601d8361269a565b91507f4f6e6c792061646d696e2063616e20676574207468652064617465732e0000006000830152602082019050919050565b6000611dca60128361269a565b91507f566f74696e67206973206f6e676f696e672e00000000000000000000000000006000830152602082019050919050565b6000611e0a601c8361269a565b91507f4f6e6c792061646d696e2063616e20737461727420766f74696e672e000000006000830152602082019050919050565b6000611e4a601f8361269a565b91507f566f74696e67206973206e6f742063757272656e746c79206163746976652e006000830152602082019050919050565b6000611e8a60228361269a565b91507f456e642064617465206d7573742062652061667465722073746172742064617460008301527f652e0000000000000000000000000000000000000000000000000000000000006020830152604082019050919050565b6000611ef0601f8361269a565b91507f4f6e6c792061646d696e2063616e2064656c657465206120766f74696e672e006000830152602082019050919050565b6000611f30601c8361269a565b91507f566f74696e6720686173206e6f74206265656e20637265617465642e000000006000830152602082019050919050565b6000611f7060208361269a565b91507f566f74696e672068617320616c7265616479206265656e20637265617465642e6000830152602082019050919050565b6000611fb060218361269a565b91507f53746172742064617465206d75737420626520696e207468652066757475726560008301527f2e000000000000000000000000000000000000000000000000000000000000006020830152604082019050919050565b600061201660238361269a565b91507f566f74696e672068617320616c7265616479206265656e20636f6e666967757260008301527f65642e00000000000000000000000000000000000000000000000000000000006020830152604082019050919050565b600061207c60228361269a565b91507f4f6e6c792061646d696e2063616e20676574207468652063616e64696461746560008301527f732e0000000000000000000000000000000000000000000000000000000000006020830152604082019050919050565b60006120e2601f8361269a565b91507f4f6e6c792061646d696e2063616e20637265617465206120766f74696e672e006000830152602082019050919050565b6000612122601f8361269a565b91507f4f6e6c792061646d696e2063616e2061646420612063616e6469646174652e006000830152602082019050919050565b600061216260158361269a565b91507f496e76616c69642063616e6469646174652049442e00000000000000000000006000830152602082019050919050565b60006080830160008301516121ad60008601826121ff565b50602083015184820360208601526121c58282611b25565b915050604083015184820360408601526121df8282611b25565b91505060608301516121f460608601826121ff565b508091505092915050565b61220881612773565b82525050565b61221781612773565b82525050565b60006020820190506122326000830184611a92565b92915050565b600060208201905081810360008301526122528184611aa1565b905092915050565b600060208201905061226f6000830184611b16565b92915050565b6000604082019050818103600083015261228f8185611b97565b905081810360208301526122a38184611aa1565b90509392505050565b600060208201905081810360008301526122c581611c17565b9050919050565b600060208201905081810360008301526122e581611c57565b9050919050565b6000602082019050818103600083015261230581611c97565b9050919050565b6000602082019050818103600083015261232581611cd7565b9050919050565b6000602082019050818103600083015261234581611d3d565b9050919050565b6000602082019050818103600083015261236581611d7d565b9050919050565b6000602082019050818103600083015261238581611dbd565b9050919050565b600060208201905081810360008301526123a581611dfd565b9050919050565b600060208201905081810360008301526123c581611e3d565b9050919050565b600060208201905081810360008301526123e581611e7d565b9050919050565b6000602082019050818103600083015261240581611ee3565b9050919050565b6000602082019050818103600083015261242581611f23565b9050919050565b6000602082019050818103600083015261244581611f63565b9050919050565b6000602082019050818103600083015261246581611fa3565b9050919050565b6000602082019050818103600083015261248581612009565b9050919050565b600060208201905081810360008301526124a58161206f565b9050919050565b600060208201905081810360008301526124c5816120d5565b9050919050565b600060208201905081810360008301526124e581612115565b9050919050565b6000602082019050818103600083015261250581612155565b9050919050565b6000602082019050612521600083018461220e565b92915050565b600060808201905061253c600083018761220e565b818103602083015261254e8186611b5e565b905081810360408301526125628185611b5e565b9050612571606083018461220e565b95945050505050565b600060408201905061258f600083018561220e565b61259c602083018461220e565b9392505050565b6000604051905081810181811067ffffffffffffffff821117156125ca576125c9612898565b5b8060405250919050565b600067ffffffffffffffff8211156125ef576125ee612898565b5b602082029050602081019050919050565b600067ffffffffffffffff82111561261b5761261a612898565b5b601f19601f8301169050602081019050919050565b6000819050602082019050919050565b60008190508160005260206000209050919050565b600081519050919050565b600081519050919050565b6000602082019050919050565b600082825260208201905092915050565b600082825260208201905092915050565b600082825260208201905092915050565b60006126b682612773565b91506126c183612773565b9250827fffffffffffffffffffffffffffffffffffffffffffffffffffffffffffffffff038211156126f6576126f561283a565b5b828201905092915050565b600061270c82612773565b915061271783612773565b92508282101561272a5761272961283a565b5b828203905092915050565b600061274082612753565b9050919050565b60008115159050919050565b600073ffffffffffffffffffffffffffffffffffffffff82169050919050565b6000819050919050565b82818337600083830152505050565b60005b838110156127aa57808201518184015260208101905061278f565b838111156127b9576000848401525b50505050565b600060028204905060018216806127d757607f821691505b602082108114156127eb576127ea612869565b5b50919050565b60006127fc82612773565b91507fffffffffffffffffffffffffffffffffffffffffffffffffffffffffffffffff82141561282f5761282e61283a565b5b600182019050919050565b7f4e487b7100000000000000000000000000000000000000000000000000000000600052601160045260246000fd5b7f4e487b7100000000000000000000000000000000000000000000000000000000600052602260045260246000fd5b7f4e487b7100000000000000000000000000000000000000000000000000000000600052604160045260246000fd5b6000601f19601f8301169050919050565b6128e181612735565b81146128ec57600080fd5b50565b6128f881612773565b811461290357600080fd5b5056fea2646970667358221220d2d2cfc4fa65ffd124ef5f4c4f1476286e6a96d2fe4b56d9f6bc628c45f71ca664736f6c63430008000033",
  "immutableReferences": {},
  "source": "// SPDX-License-Identifier: MIT\r\n// This license identifier specifies that the code is released under the MIT License\r\n\r\n// File: contracts/Migrations.sol\r\n// This is a standard contract used by Truffle to manage migration history on the blockchain.\r\npragma solidity 0.8.0; // Specifies the Solidity compiler version to use\r\n\r\n/**\r\n * @title Migrations\r\n * @dev This contract manages the migration history for Truffle deployments\r\n */\r\ncontract Migrations {\r\n    // Address of the contract owner\r\n    address public owner;\r\n    // Tracks the last completed migration script\r\n    uint public last_completed_migration;\r\n\r\n    /**\r\n     * @dev Modifier to restrict function access to the contract owner only\r\n     */\r\n    modifier restricted() {\r\n        require(msg.sender == owner, \"Access restricted to owner\");\r\n        _; // Continue execution if the requirement is met\r\n    }\r\n\r\n    /**\r\n     * @dev Constructor sets the deployer as the contract owner\r\n     */\r\n    constructor() {\r\n        owner = msg.sender;\r\n    }\r\n\r\n    /**\r\n     * @dev Updates the last completed migration number\r\n     * @param completed The migration number that was completed\r\n     */\r\n    function setCompleted(uint completed) public restricted {\r\n        last_completed_migration = completed;\r\n    }\r\n\r\n    // This function is commented out as it points to an older pattern and can cause confusion.\r\n    // The core functionality for migrations is handled by Truffle's deployment scripts.\r\n    /*\r\n    function upgrade(address new_address) public restricted {\r\n        Migrations upgraded = Migrations(new_address);\r\n        upgraded.setCompleted(last_completed_migration);\r\n    }\r\n    */\r\n}\r\n\r\n\r\n// File: contracts/Voting.sol\r\n// This is the main smart contract for the decentralized voting application.\r\npragma solidity 0.8.0; // Specifies the Solidity compiler version to use\r\n\r\n/**\r\n * @title Voting\r\n * @dev A smart contract for managing decentralized voting sessions\r\n */\r\ncontract Voting {\r\n\r\n    // Admin address that has special privileges\r\n    address public admin;\r\n\r\n    /**\r\n     * @dev Struct to hold information about each candidate\r\n     */\r\n    struct Candidate {\r\n        uint id;          // Unique identifier for the candidate\r\n        string name;      // Name of the candidate\r\n        string party;     // Political party or affiliation of the candidate\r\n        uint voteCount;   // Number of votes received by the candidate\r\n    }\r\n\r\n    // Mappings to store data\r\n    mapping(uint => Candidate) private candidates; // Maps candidate ID to Candidate struct\r\n    mapping(uint => address) private voters;        // Maps voter index to voter ID string\r\n\r\n    // State variables\r\n    uint private votingId;        // ID of the current voting session\r\n    string private votingTitle;   // Title of the current voting session\r\n    uint private countCandidates; // Total number of candidates in the current session\r\n    uint256 private votingEnd;    // Timestamp for when voting ends\r\n    uint256 private votingStart;  // Timestamp for when voting starts\r\n    uint private votingCount;     // Number of votes cast in the current session\r\n    bool private votingCreated;   // Boolean indicating if a voting session has been created\r\n\r\n    // Events\r\n    /**\r\n     * @dev Event emitted when a vote is cast\r\n     * @param candidateId ID of the candidate who received the vote\r\n     * @param voteCount Updated vote count for the candidate\r\n     */\r\n    event Voted(uint indexed candidateId, uint indexed voteCount);\r\n    \r\n    /**\r\n     * @dev Event emitted when a voting session is created\r\n     * @param votingId ID of the created voting session\r\n     * @param votingStart Timestamp when voting starts\r\n     * @param votingEnd Timestamp when voting ends\r\n     * @param votingTitle Title of the voting session\r\n     * @param candidates Array of candidates in the voting session\r\n     */\r\n    event VotingCreated(uint indexed votingId, uint indexed votingStart, uint indexed votingEnd, string votingTitle, Candidate[] candidates);\r\n\r\n    /**\r\n     * @dev Event emitted when a voting session is deleted\r\n     */\r\n    event VotingDeleted();\r\n\r\n    /**\r\n     * @dev Event emitted when voting is started immediately\r\n     * @param newStartTime New start timestamp (current time)\r\n     * @param newEndTime New end timestamp\r\n     */\r\n    event VotingStartedImmediately(uint256 indexed newStartTime, uint256 indexed newEndTime);\r\n\r\n\r\n    /**\r\n     * @dev Constructor to set initial values when the contract is deployed\r\n     */\r\n    constructor() {\r\n        votingCreated = false;    // No voting session created initially\r\n        countCandidates = 0;      // No candidates initially\r\n        votingCount = 0;          // No votes cast initially\r\n        admin = msg.sender;       // Set deployer as admin\r\n    }\r\n\r\n    // --- Functions ---\r\n\r\n    /**\r\n     * @dev Creates a new voting session\r\n     * @param _votingId Unique identifier for the voting session\r\n     * @param _title The title of the voting session\r\n     * @param _startDate The UNIX timestamp for the start of voting\r\n     * @param _endDate The UNIX timestamp for the end of voting\r\n     * @param _candidates Array of candidate structs to add to the voting session\r\n     */\r\n    function createVoting(uint _votingId, string memory _title, uint256 _startDate, uint256 _endDate, Candidate[] memory _candidates) public {\r\n        // Verify that only the admin can create a voting session\r\n        require(msg.sender == admin, \"Only admin can create a voting.\");\r\n        // Verify that no voting session exists already\r\n        require(!votingCreated, \"Voting has already been created.\");\r\n        // Verify that the start date is in the future\r\n        require(_startDate > block.timestamp, \"Start date must be in the future.\");\r\n        // Verify that the end date is after the start date\r\n        require(_endDate > _startDate, \"End date must be after start date.\");\r\n        // Verify that no voting session has been configured\r\n        require(votingStart <= block.timestamp, \"Voting has already been configured.\");\r\n\r\n        // Set voting session details\r\n        votingId = _votingId;\r\n        votingTitle = _title;\r\n        setDates(_startDate, _endDate);\r\n        \r\n        // Add all candidates to the voting session\r\n        for (uint i = 0; i < _candidates.length; i++) {\r\n            addCandidate(_candidates[i].id, _candidates[i].name, _candidates[i].party);\r\n        }\r\n        \r\n        // Mark that a voting session has been created\r\n        votingCreated = true;\r\n\r\n        // Emit event for the created voting session\r\n        emit VotingCreated(votingId, votingStart, votingEnd, votingTitle, getCandidates());\r\n    }\r\n\r\n\r\n    /**\r\n     * @dev Start voting immediately and end at specific timestamp\r\n     * @param _endTimestamp Timestamp when voting should end\r\n     */\r\n    function startVotingImmediately(uint256 _endTimestamp) public {\r\n        // Verify that only the admin can start voting\r\n        require(msg.sender == admin, \"Only admin can start voting.\");\r\n        // Verify that a voting session exists\r\n        require(votingCreated, \"Voting has not been created.\");\r\n        // Verify that end time is in the future\r\n        require(_endTimestamp > block.timestamp, \"End time must be in the future.\");\r\n        // Verify minimum duration (e.g., at least 1 hour)\r\n        require(_endTimestamp >= block.timestamp + 3600, \"Voting must last at least 1 hour.\");\r\n        \r\n        uint256 currentTime = block.timestamp;\r\n        \r\n        // Update the dates to start now\r\n        votingStart = currentTime;\r\n        votingEnd = _endTimestamp;\r\n        \r\n        // Emit event for immediate start\r\n        emit VotingStartedImmediately(currentTime, _endTimestamp);\r\n    }\r\n\r\n    /**\r\n     * @dev Deletes the current voting session\r\n     * Can only be called by the admin when voting is not ongoing\r\n     */\r\n    function deleteVoting() public {\r\n        // Verify that only the admin can delete a voting session\r\n        require(msg.sender == admin, \"Only admin can delete a voting.\");\r\n        // Verify that a voting session exists\r\n        require(votingCreated, \"Voting has not been created.\");\r\n        // Verify that voting is not currently ongoing\r\n        require(votingStart > block.timestamp || votingEnd < block.timestamp, \"Voting is ongoing.\");\r\n        \r\n        // Reset all voting session data\r\n        votingCreated = false;\r\n        votingStart = 0;\r\n        votingEnd = 0;\r\n        votingId = 0;\r\n        votingTitle = \"\";\r\n        \r\n        // Delete all candidates\r\n        for (uint i = 1; i <= countCandidates; i++) {\r\n            delete candidates[i];\r\n        }\r\n        \r\n        // Reset vote count and candidate count\r\n        votingCount = 0;\r\n        countCandidates = 0;\r\n\r\n        // Emit event for the deleted voting session\r\n        emit VotingDeleted();\r\n    }\r\n\r\n    /**\r\n     * @dev Cancels the current voting session (functionally identical to deleteVoting)\r\n     * Can only be called by the admin when voting is not ongoing\r\n     */\r\n    function cancelVoting() public {\r\n        // Verify that only the admin can cancel a voting session\r\n        require(msg.sender == admin, \"Only admin can cancel a voting.\");\r\n        // Verify that a voting session exists\r\n        require(votingCreated, \"Voting has not been created.\");\r\n        // Verify that voting is not currently ongoing\r\n        require(votingStart > block.timestamp || votingEnd < block.timestamp, \"Voting is ongoing.\");\r\n        \r\n        // Reset all voting session data\r\n        votingCreated = false;\r\n        votingStart = 0;\r\n        votingEnd = 0;\r\n        votingId = 0;\r\n        votingTitle = \"\";\r\n        \r\n        // Delete all candidates\r\n        for (uint i = 1; i <= countCandidates; i++) {\r\n            delete candidates[i];\r\n        }\r\n        \r\n        // Reset vote count and candidate count\r\n        votingCount = 0;\r\n        countCandidates = 0;\r\n\r\n        // Emit event for the deleted voting session\r\n        emit VotingDeleted();\r\n    }\r\n\r\n\r\n    \r\n    /**\r\n     * @dev Set the start and end dates for the voting period\r\n     * @param _startDate The UNIX timestamp for the start of voting\r\n     * @param _endDate The UNIX timestamp for the end of voting\r\n     */\r\n    function setDates(uint256 _startDate, uint256 _endDate) private {\r\n        // This check from the PDF '(_startDate + 1000000 > now)' is unusual. A simple ' _startDate > now ' is more common.\r\n        // We will implement a more standard check.\r\n\r\n        // Note: These requirements are already checked in the createVoting function\r\n        // require(votingStart == 0, \"Voting dates have already been set.\");\r\n        // require(_startDate > now, \"Start date must be in the future.\");\r\n        // require(_endDate > _startDate, \"End date must be after start date.\");\r\n\r\n        // Set the voting period timestamps\r\n        votingStart = _startDate;\r\n        votingEnd = _endDate;\r\n    }\r\n\r\n    /**\r\n     * @dev Add a new candidate to the election\r\n     * @param _id The ID of the candidate\r\n     * @param _name The name of the candidate\r\n     * @param _party The party of the candidate\r\n     */\r\n    function addCandidate(uint _id, string memory _name, string memory _party) private {\r\n        // Verify that only the admin can add a candidate\r\n        require(msg.sender == admin, \"Only admin can add a candidate.\");\r\n        \r\n        // Increment the candidate count\r\n        countCandidates++;\r\n        \r\n        // Create and store the new candidate\r\n        candidates[countCandidates] = Candidate(_id, _name, _party, 0);\r\n    }\r\n\r\n\r\n\r\n\r\n    /**\r\n     * @dev Allows a voter to cast their vote for a candidate\r\n     * @param _candidateID The ID of the candidate to vote for\r\n     * @param _voterAddress The unique identifier of the voter\r\n     */\r\n    function vote(uint _candidateID, address _voterAddress) public {\r\n        // Verify that voting is currently active\r\n        require(votingStart <= block.timestamp && votingEnd > block.timestamp, \"Voting is not currently active.\");\r\n\r\n        // Verify that the candidate ID is valid\r\n        require(_candidateID > 0 && _candidateID <= countCandidates, \"Invalid candidate ID.\");\r\n        \r\n        // Verify that the voter has not already voted\r\n        require(!checkVote(_voterAddress), \"You have already voted.\");\r\n\r\n        // Record the voter's address\r\n        voters[votingCount + 1] = _voterAddress;\r\n        // Increment the vote count\r\n        votingCount++;\r\n        \r\n        // Increment the vote count for the chosen candidate\r\n        candidates[_candidateID].voteCount++;\r\n\r\n        // Emit the Voted event\r\n        emit Voted(_candidateID, candidates[_candidateID].voteCount);\r\n    }\r\n\r\n\r\n\r\n\r\n    /**\r\n     * @dev Checks if a voter has already voted\r\n     * @param _voterAddress The unique identifier of the voter\r\n     * @return A boolean indicating whether the voter has already voted\r\n     */\r\n    function checkVote(address _voterAddress) public view returns (bool) {\r\n        // Verify that a voting session exists\r\n        require(votingCreated, \"Voting has not been created.\");\r\n        \r\n        // Check if the voter address exists in the voters mapping\r\n        for (uint i = 1; i <= votingCount; i++) {\r\n            if (voters[i] == _voterAddress) {\r\n                return true; // Voter has already voted\r\n            }\r\n        }\r\n        return false; // Voter has not voted\r\n    }\r\n\r\n    /**\r\n     * @dev Gets the total number of registered candidates\r\n     * @return The total candidate count\r\n     */\r\n    function getCountCandidates() public view returns (uint) {\r\n        return countCandidates;\r\n    }\r\n\r\n    /**\r\n     * @dev Returns whether a voting session has been created\r\n     * @return bool indicating if voting session exists\r\n     */\r\n    function isVotingCreated() public view returns (bool) {\r\n        return votingCreated;\r\n    }\r\n\r\n    /**\r\n     * @dev Retrieves details for a specific candidate\r\n     * @param _candidateID The ID of the candidate\r\n     * @return The candidate's ID, name, party, and vote count\r\n     */\r\n    function getCandidate(uint _candidateID)\r\n        public\r\n        view\r\n        returns (uint, string memory, string memory, uint)\r\n    {\r\n        // Verify that only the admin can get candidate details\r\n        require(msg.sender == admin, \"Only admin can get a candidate.\");\r\n        // Verify that a voting session exists\r\n        require(votingCreated, \"Voting has not been created.\");\r\n        // Verify that the candidate ID is valid\r\n        require(_candidateID > 0 && _candidateID <= countCandidates, \"Invalid candidate ID.\");\r\n        \r\n        // Get the candidate struct\r\n        Candidate memory c = candidates[_candidateID];\r\n        \r\n        // Return the candidate details\r\n        return (c.id, c.name, c.party, c.voteCount);\r\n    }\r\n\r\n    /**\r\n     * @dev Retrieves all candidates in the current voting session\r\n     * @return An array of all candidates\r\n     */\r\n    function getCandidates() public view returns (Candidate[] memory) {\r\n        // Verify that only the admin can get all candidates\r\n        require(msg.sender == admin, \"Only admin can get the candidates.\");\r\n        // Verify that a voting session exists\r\n        require(votingCreated, \"Voting has not been created.\");\r\n        \r\n        // Create an array to hold all candidates\r\n        Candidate[] memory candidatesList = new Candidate[](countCandidates);\r\n        \r\n        // Populate the array with all candidates\r\n        for (uint i = 1; i <= countCandidates; i++) {\r\n            candidatesList[i - 1] = candidates[i];\r\n        }\r\n        \r\n        // Return the array of candidates\r\n        return candidatesList;\r\n    }\r\n\r\n    /**\r\n     * @dev Retrieves the start and end dates of the voting period\r\n     * @return The start and end UNIX timestamps\r\n     */\r\n    function getDates() public view returns (uint256, uint256) {\r\n        // Verify that only the admin can get the voting dates\r\n        require(msg.sender == admin, \"Only admin can get the dates.\");\r\n        // Verify that a voting session exists\r\n        require(votingCreated, \"Voting has not been created.\");\r\n        \r\n        // Return the start and end timestamps\r\n        return (votingStart, votingEnd);\r\n    }\r\n}\r\n",
  "sourcePath": "C:\\Users\\Ryo\\Documents\\GitHub\\web3-voting\\blockchain\\contracts\\voting.sol",
  "compiler": {
    "name": "solc",
    "version": "0.8.0+commit.c7dfd78e.Emscripten.clang"
  },
  "schemaVersion": "3.4.16",
  "updatedAt": "2025-08-19T09:36:20.740Z",
  "networkType": "ethereum",
  "devdoc": {
    "details": "A smart contract for managing decentralized voting sessions",
    "events": {
      "Voted(uint256,uint256)": {
        "details": "Event emitted when a vote is cast",
        "params": {
          "candidateId": "ID of the candidate who received the vote",
          "voteCount": "Updated vote count for the candidate"
        }
      },
      "VotingCreated(uint256,uint256,uint256,string,(uint256,string,string,uint256)[])": {
        "details": "Event emitted when a voting session is created",
        "params": {
          "candidates": "Array of candidates in the voting session",
          "votingEnd": "Timestamp when voting ends",
          "votingId": "ID of the created voting session",
          "votingStart": "Timestamp when voting starts",
          "votingTitle": "Title of the voting session"
        }
      },
      "VotingDeleted()": {
        "details": "Event emitted when a voting session is deleted"
      },
      "VotingStartedImmediately(uint256,uint256)": {
        "details": "Event emitted when voting is started immediately",
        "params": {
          "newEndTime": "New end timestamp",
          "newStartTime": "New start timestamp (current time)"
        }
      }
    },
    "kind": "dev",
    "methods": {
      "cancelVoting()": {
        "details": "Cancels the current voting session (functionally identical to deleteVoting) Can only be called by the admin when voting is not ongoing"
      },
      "checkVote(address)": {
        "details": "Checks if a voter has already voted",
        "params": {
          "_voterAddress": "The unique identifier of the voter"
        },
        "returns": {
          "_0": "A boolean indicating whether the voter has already voted"
        }
      },
      "constructor": {
        "details": "Constructor to set initial values when the contract is deployed"
      },
      "createVoting(uint256,string,uint256,uint256,(uint256,string,string,uint256)[])": {
        "details": "Creates a new voting session",
        "params": {
          "_candidates": "Array of candidate structs to add to the voting session",
          "_endDate": "The UNIX timestamp for the end of voting",
          "_startDate": "The UNIX timestamp for the start of voting",
          "_title": "The title of the voting session",
          "_votingId": "Unique identifier for the voting session"
        }
      },
      "deleteVoting()": {
        "details": "Deletes the current voting session Can only be called by the admin when voting is not ongoing"
      },
      "getCandidate(uint256)": {
        "details": "Retrieves details for a specific candidate",
        "params": {
          "_candidateID": "The ID of the candidate"
        },
        "returns": {
          "_0": "The candidate's ID, name, party, and vote count"
        }
      },
      "getCandidates()": {
        "details": "Retrieves all candidates in the current voting session",
        "returns": {
          "_0": "An array of all candidates"
        }
      },
      "getCountCandidates()": {
        "details": "Gets the total number of registered candidates",
        "returns": {
          "_0": "The total candidate count"
        }
      },
      "getDates()": {
        "details": "Retrieves the start and end dates of the voting period",
        "returns": {
          "_0": "The start and end UNIX timestamps"
        }
      },
      "isVotingCreated()": {
        "details": "Returns whether a voting session has been created",
        "returns": {
          "_0": "bool indicating if voting session exists"
        }
      },
      "startVotingImmediately(uint256)": {
        "details": "Start voting immediately and end at specific timestamp",
        "params": {
          "_endTimestamp": "Timestamp when voting should end"
        }
      },
      "vote(uint256,address)": {
        "details": "Allows a voter to cast their vote for a candidate",
        "params": {
          "_candidateID": "The ID of the candidate to vote for",
          "_voterAddress": "The unique identifier of the voter"
        }
      }
    },
    "title": "Voting",
    "version": 1
  },
  "userdoc": {
    "kind": "user",
    "methods": {},
    "version": 1
  }
}