{
  "contractName": "Voting",
  "abi": [
    {
      "anonymous": false,
      "inputs": [
        {
          "indexed": true,
          "internalType": "uint256",
          "name": "candidateId",
          "type": "uint256"
        }
      ],
      "name": "Voted",
      "type": "event"
    },
    {
      "constant": true,
      "inputs": [
        {
          "internalType": "uint256",
          "name": "",
          "type": "uint256"
        }
      ],
      "name": "candidates",
      "outputs": [
        {
          "internalType": "uint256",
          "name": "id",
          "type": "uint256"
        },
        {
          "internalType": "string",
          "name": "name",
          "type": "string"
        },
        {
          "internalType": "string",
          "name": "party",
          "type": "string"
        },
        {
          "internalType": "uint256",
          "name": "voteCount",
          "type": "uint256"
        }
      ],
      "payable": false,
      "stateMutability": "view",
      "type": "function"
    },
    {
      "constant": true,
      "inputs": [],
      "name": "countCandidates",
      "outputs": [
        {
          "internalType": "uint256",
          "name": "",
          "type": "uint256"
        }
      ],
      "payable": false,
      "stateMutability": "view",
      "type": "function"
    },
    {
      "constant": true,
      "inputs": [
        {
          "internalType": "address",
          "name": "",
          "type": "address"
        }
      ],
      "name": "voters",
      "outputs": [
        {
          "internalType": "bool",
          "name": "",
          "type": "bool"
        }
      ],
      "payable": false,
      "stateMutability": "view",
      "type": "function"
    },
    {
      "constant": true,
      "inputs": [],
      "name": "votingEnd",
      "outputs": [
        {
          "internalType": "uint256",
          "name": "",
          "type": "uint256"
        }
      ],
      "payable": false,
      "stateMutability": "view",
      "type": "function"
    },
    {
      "constant": true,
      "inputs": [],
      "name": "votingStart",
      "outputs": [
        {
          "internalType": "uint256",
          "name": "",
          "type": "uint256"
        }
      ],
      "payable": false,
      "stateMutability": "view",
      "type": "function"
    },
    {
      "constant": false,
      "inputs": [
        {
          "internalType": "string",
          "name": "_name",
          "type": "string"
        },
        {
          "internalType": "string",
          "name": "_party",
          "type": "string"
        }
      ],
      "name": "addCandidate",
      "outputs": [
        {
          "internalType": "uint256",
          "name": "",
          "type": "uint256"
        }
      ],
      "payable": false,
      "stateMutability": "nonpayable",
      "type": "function"
    },
    {
      "constant": false,
      "inputs": [
        {
          "internalType": "uint256",
          "name": "_candidateID",
          "type": "uint256"
        }
      ],
      "name": "vote",
      "outputs": [],
      "payable": false,
      "stateMutability": "nonpayable",
      "type": "function"
    },
    {
      "constant": false,
      "inputs": [
        {
          "internalType": "uint256",
          "name": "_startDate",
          "type": "uint256"
        },
        {
          "internalType": "uint256",
          "name": "_endDate",
          "type": "uint256"
        }
      ],
      "name": "setDates",
      "outputs": [],
      "payable": false,
      "stateMutability": "nonpayable",
      "type": "function"
    },
    {
      "constant": true,
      "inputs": [],
      "name": "checkVote",
      "outputs": [
        {
          "internalType": "bool",
          "name": "",
          "type": "bool"
        }
      ],
      "payable": false,
      "stateMutability": "view",
      "type": "function"
    },
    {
      "constant": true,
      "inputs": [],
      "name": "getCountCandidates",
      "outputs": [
        {
          "internalType": "uint256",
          "name": "",
          "type": "uint256"
        }
      ],
      "payable": false,
      "stateMutability": "view",
      "type": "function"
    },
    {
      "constant": true,
      "inputs": [
        {
          "internalType": "uint256",
          "name": "_candidateID",
          "type": "uint256"
        }
      ],
      "name": "getCandidate",
      "outputs": [
        {
          "internalType": "uint256",
          "name": "",
          "type": "uint256"
        },
        {
          "internalType": "string",
          "name": "",
          "type": "string"
        },
        {
          "internalType": "string",
          "name": "",
          "type": "string"
        },
        {
          "internalType": "uint256",
          "name": "",
          "type": "uint256"
        }
      ],
      "payable": false,
      "stateMutability": "view",
      "type": "function"
    },
    {
      "constant": true,
      "inputs": [],
      "name": "getDates",
      "outputs": [
        {
          "internalType": "uint256",
          "name": "",
          "type": "uint256"
        },
        {
          "internalType": "uint256",
          "name": "",
          "type": "uint256"
        }
      ],
      "payable": false,
      "stateMutability": "view",
      "type": "function"
    }
  ],
  "bytecode": "0x608060405234801561001057600080fd5b50611043806100206000396000f3fe608060405234801561001057600080fd5b50600436106100b45760003560e01c806335b8e8201161007157806335b8e820146103cf57806385a38635146104f0578063a3ec138d1461050e578063b0417e981461056a578063b86eda911461058c578063dedf141e146105aa576100b4565b80630121b93f146100b95780630a84a217146100e7578063101158af14610105578063164418131461012357806326541b56146101485780633477ee2e146102ae575b600080fd5b6100e5600480360360208110156100cf57600080fd5b81019080803590602001909291905050506105e2565b005b6100ef610865565b6040518082815260200191505060405180910390f35b61010d61086f565b6040518082815260200191505060405180910390f35b61012b610875565b604051808381526020018281526020019250505060405180910390f35b6102986004803603604081101561015e57600080fd5b810190808035906020019064010000000081111561017b57600080fd5b82018360208201111561018d57600080fd5b803590602001918460018302840111640100000000831117156101af57600080fd5b91908080601f016020809104026020016040519081016040528093929190818152602001838380828437600081840152601f19601f8201169050808301925050505050505091929192908035906020019064010000000081111561021257600080fd5b82018360208201111561022457600080fd5b8035906020019184600183028401116401000000008311171561024657600080fd5b91908080601f016020809104026020016040519081016040528093929190818152602001838380828437600081840152601f19601f820116905080830192505050505050509192919290505050610886565b6040518082815260200191505060405180910390f35b6102da600480360360208110156102c457600080fd5b8101908080359060200190929190505050610988565b604051808581526020018060200180602001848152602001838103835286818151815260200191508051906020019080838360005b8381101561032a57808201518184015260208101905061030f565b50505050905090810190601f1680156103575780820380516001836020036101000a031916815260200191505b50838103825285818151815260200191508051906020019080838360005b83811015610390578082015181840152602081019050610375565b50505050905090810190601f1680156103bd5780820380516001836020036101000a031916815260200191505b50965050505050505060405180910390f35b6103fb600480360360208110156103e557600080fd5b8101908080359060200190929190505050610ae8565b604051808581526020018060200180602001848152602001838103835286818151815260200191508051906020019080838360005b8381101561044b578082015181840152602081019050610430565b50505050905090810190601f1680156104785780820380516001836020036101000a031916815260200191505b50838103825285818151815260200191508051906020019080838360005b838110156104b1578082015181840152602081019050610496565b50505050905090810190601f1680156104de5780820380516001836020036101000a031916815260200191505b50965050505050505060405180910390f35b6104f8610d1b565b6040518082815260200191505060405180910390f35b6105506004803603602081101561052457600080fd5b81019080803573ffffffffffffffffffffffffffffffffffffffff169060200190929190505050610d21565b604051808215151515815260200191505060405180910390f35b610572610d41565b604051808215151515815260200191505060405180910390f35b610594610d95565b6040518082815260200191505060405180910390f35b6105e0600480360360408110156105c057600080fd5b810190808035906020019092919080359060200190929190505050610d9b565b005b60006004541180156105f657504260045411155b8015610603575042600354115b610675576040517f08c379a000000000000000000000000000000000000000000000000000000000815260040180806020018281038252601f8152602001807f566f74696e67206973206e6f742063757272656e746c79206163746976652e0081525060200191505060405180910390fd5b60008111801561068757506002548111155b6106f9576040517f08c379a00000000000000000000000000000000000000000000000000000000081526004018080602001828103825260158152602001807f496e76616c69642063616e6469646174652049442e000000000000000000000081525060200191505060405180910390fd5b600160003373ffffffffffffffffffffffffffffffffffffffff1673ffffffffffffffffffffffffffffffffffffffff16815260200190815260200160002060009054906101000a900460ff16156107b9576040517f08c379a00000000000000000000000000000000000000000000000000000000081526004018080602001828103825260178152602001807f596f75206861766520616c726561647920766f7465642e00000000000000000081525060200191505060405180910390fd5b60018060003373ffffffffffffffffffffffffffffffffffffffff1673ffffffffffffffffffffffffffffffffffffffff16815260200190815260200160002060006101000a81548160ff02191690831515021790555060008082815260200190815260200160002060030160008154809291906001019190505550807f7f511e347bf51eed3be100b3194247d5207f05f3b33de7d31e3e8ee73199a04960405160405180910390a250565b6000600254905090565b60045481565b600080600454600354915091509091565b600080600454146108e2576040517f08c379a0000000000000000000000000000000000000000000000000000000008152600401808060200182810382526023815260200180610fc96023913960400191505060405180910390fd5b6002600081548092919060010191905055506040518060800160405280600254815260200184815260200183815260200160008152506000806002548152602001908152602001600020600082015181600001556020820151816001019080519060200190610952929190610eb8565b50604082015181600201908051906020019061096f929190610eb8565b5060608201518160030155905050600254905092915050565b6000602052806000526040600020600091509050806000015490806001018054600181600116156101000203166002900480601f016020809104026020016040519081016040528092919081815260200182805460018160011615610100020316600290048015610a3a5780601f10610a0f57610100808354040283529160200191610a3a565b820191906000526020600020905b815481529060010190602001808311610a1d57829003601f168201915b505050505090806002018054600181600116156101000203166002900480601f016020809104026020016040519081016040528092919081815260200182805460018160011615610100020316600290048015610ad85780601f10610aad57610100808354040283529160200191610ad8565b820191906000526020600020905b815481529060010190602001808311610abb57829003601f168201915b5050505050908060030154905084565b600060608060008085118015610b0057506002548511155b610b72576040517f08c379a00000000000000000000000000000000000000000000000000000000081526004018080602001828103825260158152602001807f496e76616c69642063616e6469646174652049442e000000000000000000000081525060200191505060405180910390fd5b610b7a610f38565b60008087815260200190815260200160002060405180608001604052908160008201548152602001600182018054600181600116156101000203166002900480601f016020809104026020016040519081016040528092919081815260200182805460018160011615610100020316600290048015610c3a5780601f10610c0f57610100808354040283529160200191610c3a565b820191906000526020600020905b815481529060010190602001808311610c1d57829003601f168201915b50505050508152602001600282018054600181600116156101000203166002900480601f016020809104026020016040519081016040528092919081815260200182805460018160011615610100020316600290048015610cdc5780601f10610cb157610100808354040283529160200191610cdc565b820191906000526020600020905b815481529060010190602001808311610cbf57829003601f168201915b50505050508152602001600382015481525050905080600001518160200151826040015183606001518292508191509450945094509450509193509193565b60035481565b60016020528060005260406000206000915054906101000a900460ff1681565b6000600160003373ffffffffffffffffffffffffffffffffffffffff1673ffffffffffffffffffffffffffffffffffffffff16815260200190815260200160002060009054906101000a900460ff16905090565b60025481565b600060045414610df6576040517f08c379a0000000000000000000000000000000000000000000000000000000008152600401808060200182810382526023815260200180610fec6023913960400191505060405180910390fd5b428211610e4e576040517f08c379a0000000000000000000000000000000000000000000000000000000008152600401808060200182810382526021815260200180610fa86021913960400191505060405180910390fd5b818111610ea6576040517f08c379a0000000000000000000000000000000000000000000000000000000008152600401808060200182810382526022815260200180610f866022913960400191505060405180910390fd5b81600481905550806003819055505050565b828054600181600116156101000203166002900490600052602060002090601f016020900481019282601f10610ef957805160ff1916838001178555610f27565b82800160010185558215610f27579182015b82811115610f26578251825591602001919060010190610f0b565b5b509050610f349190610f60565b5090565b6040518060800160405280600081526020016060815260200160608152602001600081525090565b610f8291905b80821115610f7e576000816000905550600101610f66565b5090565b9056fe456e642064617465206d75737420626520616674657220737461727420646174652e53746172742064617465206d75737420626520696e20746865206675747572652e566f74696e672068617320616c7265616479206265656e20636f6e666967757265642e566f74696e67206461746573206861766520616c7265616479206265656e207365742ea265627a7a723158201c5cdd854620c034561cf324060768e8b5c2b08dc2ea1e38297c7cb3380a7fd064736f6c634300050f0032",
  "source": "// SPDX-License-Identifier: MIT\r\n\r\n// File: contracts/Migrations.sol\r\n// This is a standard contract used by Truffle to manage migration history on the blockchain.\r\npragma solidity ^0.5.15;\r\n\r\ncontract Migrations {\r\n    address public owner;\r\n    uint public last_completed_migration;\r\n\r\n    modifier restricted() {\r\n        require(msg.sender == owner, \"Access restricted to owner\");\r\n        _;\r\n    }\r\n\r\n    constructor() public {\r\n        owner = msg.sender;\r\n    }\r\n\r\n    function setCompleted(uint completed) public restricted {\r\n        last_completed_migration = completed;\r\n    }\r\n\r\n    // This function is commented out as it points to an older pattern and can cause confusion.\r\n    // The core functionality for migrations is handled by Truffle's deployment scripts.\r\n    /*\r\n    function upgrade(address new_address) public restricted {\r\n        Migrations upgraded = Migrations(new_address);\r\n        upgraded.setCompleted(last_completed_migration);\r\n    }\r\n    */\r\n}\r\n\r\n\r\n// File: contracts/Voting.sol\r\n// This is the main smart contract for the decentralized voting application.\r\npragma solidity ^0.5.15;\r\n\r\ncontract Voting {\r\n\r\n    // Struct to hold information about each candidate\r\n    struct Candidate {\r\n        uint id;\r\n        string name;\r\n        string party;\r\n        uint voteCount;\r\n    }\r\n\r\n    // Mappings to store data\r\n    mapping(uint => Candidate) public candidates; // Maps candidate ID to Candidate struct\r\n    mapping(address => bool) public voters;     // Maps voter address to a boolean indicating if they have voted\r\n\r\n    // State variables\r\n    uint public countCandidates; // Total number of candidates\r\n    uint256 public votingEnd;    // Timestamp for when voting ends\r\n    uint256 public votingStart;  // Timestamp for when voting starts\r\n\r\n    // Event to be emitted when a vote is cast\r\n    event Voted(uint indexed candidateId);\r\n\r\n    // --- Functions ---\r\n\r\n    /**\r\n     * @dev Add a new candidate to the election.\r\n     * Can only be called before voting has started.\r\n     * @param _name The name of the candidate.\r\n     * @param _party The party of the candidate.\r\n     * @return The ID of the newly added candidate.\r\n     */\r\n    function addCandidate(string memory _name, string memory _party)\r\n        public\r\n        returns (uint)\r\n    {\r\n        require(votingStart == 0, \"Voting has already been configured.\");\r\n        countCandidates++;\r\n        candidates[countCandidates] = Candidate(countCandidates, _name, _party, 0);\r\n        return countCandidates;\r\n    }\r\n\r\n    /**\r\n     * @dev Allows a registered voter to cast their vote.\r\n     * @param _candidateID The ID of the candidate to vote for.\r\n     */\r\n    function vote(uint _candidateID) public {\r\n        // Require that voting is currently active\r\n        require(votingStart > 0 && votingStart <= now && votingEnd > now, \"Voting is not currently active.\");\r\n        \r\n        // Require that the candidate ID is valid\r\n        require(_candidateID > 0 && _candidateID <= countCandidates, \"Invalid candidate ID.\");\r\n        \r\n        // Require that the voter has not already voted\r\n        require(!voters[msg.sender], \"You have already voted.\");\r\n\r\n        // Record that the voter has voted\r\n        voters[msg.sender] = true;\r\n        \r\n        // Increment the vote count for the chosen candidate\r\n        candidates[_candidateID].voteCount++;\r\n\r\n        // Emit the Voted event\r\n        emit Voted(_candidateID);\r\n    }\r\n\r\n    /**\r\n     * @dev Set the start and end dates for the voting period.\r\n     * Can only be set once. Start date must be in the future. End date must be after start date.\r\n     * @param _startDate The UNIX timestamp for the start of voting.\r\n     * @param _endDate The UNIX timestamp for the end of voting.\r\n     */\r\n    function setDates(uint256 _startDate, uint256 _endDate) public {\r\n        // This check from the PDF '(_startDate + 1000000 > now)' is unusual. A simple ' _startDate > now ' is more common.\r\n        // We will implement a more standard check.\r\n        require(votingStart == 0, \"Voting dates have already been set.\");\r\n        require(_startDate > now, \"Start date must be in the future.\");\r\n        require(_endDate > _startDate, \"End date must be after start date.\");\r\n\r\n        votingStart = _startDate;\r\n        votingEnd = _endDate;\r\n    }\r\n\r\n    /**\r\n     * @dev Checks if the current message sender has already voted.\r\n     * @return A boolean indicating the voting status.\r\n     */\r\n    function checkVote() public view returns (bool) {\r\n        return voters[msg.sender];\r\n    }\r\n\r\n    /**\r\n     * @dev Gets the total number of registered candidates.\r\n     * @return The total candidate count.\r\n     */\r\n    function getCountCandidates() public view returns (uint) {\r\n        return countCandidates;\r\n    }\r\n\r\n    /**\r\n     * @dev Retrieves details for a specific candidate.\r\n     * @param _candidateID The ID of the candidate.\r\n     * @return The candidate's ID, name, party, and vote count.\r\n     */\r\n    function getCandidate(uint _candidateID)\r\n        public\r\n        view\r\n        returns (uint, string memory, string memory, uint)\r\n    {\r\n        require(_candidateID > 0 && _candidateID <= countCandidates, \"Invalid candidate ID.\");\r\n        Candidate memory c = candidates[_candidateID];\r\n        return (c.id, c.name, c.party, c.voteCount);\r\n    }\r\n\r\n    /**\r\n     * @dev Retrieves the start and end dates of the voting period.\r\n     * @return The start and end UNIX timestamps.\r\n     */\r\n    function getDates() public view returns (uint256, uint256) {\r\n        return (votingStart, votingEnd);\r\n    }\r\n}\r\n",
  "sourcePath": "C:\\Users\\Temp\\Documents\\GitHub\\ReactProject\\reactproject\\contracts\\voting.sol",
  "compiler": {
    "name": "solc",
    "version": "0.5.15+commit.6a57276f.Emscripten.clang"
  },
  "schemaVersion": "3.4.16",
  "updatedAt": "2025-08-09T16:52:28.380Z",
  "devdoc": {
    "methods": {
      "addCandidate(string,string)": {
        "details": "Add a new candidate to the election. Can only be called before voting has started.",
        "params": {
          "_name": "The name of the candidate.",
          "_party": "The party of the candidate."
        },
        "return": "The ID of the newly added candidate."
      },
      "checkVote()": {
        "details": "Checks if the current message sender has already voted.",
        "return": "A boolean indicating the voting status."
      },
      "getCandidate(uint256)": {
        "details": "Retrieves details for a specific candidate.",
        "params": {
          "_candidateID": "The ID of the candidate."
        },
        "return": "The candidate's ID, name, party, and vote count."
      },
      "getCountCandidates()": {
        "details": "Gets the total number of registered candidates.",
        "return": "The total candidate count."
      },
      "getDates()": {
        "details": "Retrieves the start and end dates of the voting period.",
        "return": "The start and end UNIX timestamps."
      },
      "setDates(uint256,uint256)": {
        "details": "Set the start and end dates for the voting period. Can only be set once. Start date must be in the future. End date must be after start date.",
        "params": {
          "_endDate": "The UNIX timestamp for the end of voting.",
          "_startDate": "The UNIX timestamp for the start of voting."
        }
      },
      "vote(uint256)": {
        "details": "Allows a registered voter to cast their vote.",
        "params": {
          "_candidateID": "The ID of the candidate to vote for."
        }
      }
    }
  },
  "userdoc": {
    "methods": {}
  }
}